:020000040800F2
:10000000002800206D2B0008952A0008972A000878
:10001000992A00089B2A00089D2A00080000000079
:100020000000000000000000000000009F2A0008FF
:10003000A12A000800000000A32A0008A52A000841
:10004000B52B0008B52B0008B52B0008B52B000810
:10005000B52B0008B52B0008B52B0008B52B000800
:10006000B52B0008B52B0008B52B0008B52B0008F0
:10007000B52B0008B52B0008B52B0008B52B0008E0
:10008000B52B0008B52B0008B52B0008B52B0008D0
:10009000B52B0008B52B0008B52B0008B52B0008C0
:1000A000B52B0008B52B0008B52B0008B52B0008B0
:1000B000B52B0008B52B000800000000B52B000888
:1000C000B52B00080000000000000000B52B000860
:1000D00000000000B52B0008B52B00080000000050
:1000E000B52B0008B52B0008B52B00080000000058
:1000F0000000000000000000000000000000000000
:0C01000000000000000000005FF808F1A3
:1001100010B5054C237833B9044B13B10448AFF341
:1001200000800123237010BDC009002000000000E2
:1001300044A1000808B5034B1BB103490348AFF3C2
:10014000008008BD00000000C409002044A1000890
:1001500081F0004102E000BF83F0004330B54FEA78
:1001600041044FEA430594EA050F08BF90EA020FE5
:100170001FBF54EA000C55EA020C7FEA645C7FEA78
:10018000655C00F0E2804FEA5454D4EB5555B8BF9B
:100190006D420CDD2C4480EA020281EA030382EA0C
:1001A000000083EA010180EA020281EA0303362D9E
:1001B00088BF30BD11F0004F4FEA01314FF4801C71
:1001C0004CEA113102D0404261EB410113F0004F83
:1001D0004FEA03334CEA133302D0524263EB43033A
:1001E00094EA050F00F0A780A4F10104D5F1200ED8
:1001F0000DDB02FA0EFC22FA05F2801841F1000133
:1002000003FA0EF2801843FA05F359410EE0A5F106
:1002100020050EF1200E012A03FA0EFC28BF4CF037
:10022000020C43FA05F3C01851EBE37101F00045ED
:1002300007D54FF0000EDCF1000C7EEB00006EEBFA
:100240000101B1F5801F1BD3B1F5001F0CD3490884
:100250005FEA30004FEA3C0C04F101044FEA4452DB
:1002600012F5800F80F09A80BCF1004F08BF5FEA62
:10027000500C50F1000041EB045141EA050130BD42
:100280005FEA4C0C404141EB0101013C28BFB1F554
:10029000801FE9D291F0000F04BF01460020B1FA9F
:1002A00081F308BF2033A3F10B03B3F120020CDA72
:1002B0000C3208DD02F1140CC2F10C0201FA0CF050
:1002C00021FA02F10CE002F11402D8BFC2F1200CB5
:1002D00001FA02F120FA0CFCDCBF41EA0C0190406B
:1002E000E41AA2BF01EB0451294330BD6FEA0404B4
:1002F0001F3C1CDA0C340EDC04F11404C4F120029F
:1003000020FA04F001FA02F340EA030021FA04F3B0
:1003100045EA030130BDC4F10C04C4F1200220FA07
:1003200002F001FA04F340EA0300294630BD21FA45
:1003300004F0294630BD94F0000F83F4801306BF0B
:1003400081F480110134013D4EE77FEA645C18BFFF
:100350007FEA655C29D094EA050F08BF90EA020F96
:1003600005D054EA000C04BF1946104630BD91EA8E
:10037000030F1EBF0021002030BD5FEA545C05D191
:100380004000494128BF41F0004130BD14F58004D0
:100390003CBF01F5801130BD01F0004545F0FE4144
:1003A00041F470014FF0000030BD7FEA645C1ABF79
:1003B000194610467FEA655C1CBF0B46024650EAB0
:1003C000013406BF52EA033591EA030F41F40021DC
:1003D00030BD00BF90F0000F04BF0021704730B562
:1003E0004FF4806404F132044FF000054FF0000137
:1003F00050E700BF90F0000F04BF0021704730B5F8
:100400004FF4806404F1320410F0004548BF4042CC
:100410004FF000013EE700BF42004FEAE2014FEA21
:1004200031014FEA02701FBF12F07F4393F07F4FFC
:1004300081F06051704732F07F4208BF704793F0FF
:100440007F4F04BF41F40021704730B54FF4607412
:1004500001F0004521F000411CE700BF50EA010215
:1004600008BF704730B54FF000050AE050EA0102BE
:1004700008BF704730B511F0004502D5404261EB2E
:1004800041014FF4806404F132045FEA915C3FF46F
:10049000D8AE4FF003025FEADC0C18BF03325FEA0C
:1004A000DC0C18BF033202EBDC02C2F1200300FABD
:1004B00003FC20FA02F001FA03FE40EA0E0021FAE2
:1004C00002F11444BDE600BF70B54FF0FF0C4CF4D0
:1004D000E06C1CEA11541DBF1CEA135594EA0C0F82
:1004E00095EA0C0F00F0DEF82C4481EA030621EABD
:1004F0004C5123EA4C5350EA013518BF52EA0335F8
:1005000041F4801143F4801338D0A0FB02CE4FF0A9
:100510000005E1FB02E506F00042E0FB03E54FF0D9
:100520000006E1FB03569CF0000F18BF4EF0010ED1
:10053000A4F1FF04B6F5007F64F5407404D25FEACD
:100540004E0E6D4146EB060642EAC62141EA555180
:100550004FEAC52040EA5E504FEACE2EB4F1FD0CC2
:1005600088BFBCF5E06F1ED8BEF1004F08BF5FEA40
:10057000500E50F1000041EB045170BD06F00046F2
:1005800046EA010140EA020081EA0301B4EB5C049F
:10059000C2BFD4EB0C0541EA045170BD41F4801197
:1005A0004FF0000E013C00F3AB8014F1360FDEBFBC
:1005B000002001F0004170BDC4F10004203C35DA98
:1005C0000C341BDC04F11404C4F1200500FA05F31B
:1005D00020FA04F001FA05F240EA020001F00042BC
:1005E00021F0004110EBD37021FA04F642EB060132
:1005F0005EEA430E08BF20EAD37070BDC4F10C045C
:10060000C4F1200500FA04F320FA05F001FA04F21F
:1006100040EA020001F0004110EBD37041F100010B
:100620005EEA430E08BF20EAD37070BDC4F1200516
:1006300000FA05F24EEA020E20FA04F301FA05F27E
:1006400043EA020321FA04F001F0004121FA04F226
:1006500020EA020000EBD3705EEA430E08BF20EAF6
:10066000D37070BD94F0000F0FD101F00046400030
:1006700041EB010111F4801F08BF013CF7D041EAB2
:10068000060195F0000F18BF704703F000465200B6
:1006900043EB030313F4801F08BF013DF7D043EA87
:1006A0000603704794EA0C0F0CEA135518BF95EA3D
:1006B0000C0F0CD050EA410618BF52EA4306D1D1C4
:1006C00081EA030101F000414FF0000070BD50EAE3
:1006D000410606BF1046194652EA430619D094EA6D
:1006E0000C0F02D150EA013613D195EA0C0F05D157
:1006F00052EA03361CBF104619460AD181EA0301AB
:1007000001F0004141F0FE4141F470014FF0000062
:1007100070BD41F0FE4141F4780170BD70B54FF0FD
:10072000FF0C4CF4E06C1CEA11541DBF1CEA13557D
:1007300094EA0C0F95EA0C0F00F0A7F8A4EB05045F
:1007400081EA030E52EA03354FEA013100F0888056
:100750004FEA03334FF0805545EA131343EA12631F
:100760004FEA022245EA111545EA10654FEA0026D4
:100770000EF000419D4208BF964244F1FD0404F58D
:10078000407402D25B084FEA3202B61A65EB0305E9
:100790005B084FEA32024FF480104FF4002CB6EBA6
:1007A000020E75EB030E22BFB61A754640EA0C0026
:1007B0005B084FEA3202B6EB020E75EB030E22BF66
:1007C000B61A754640EA5C005B084FEA3202B6EBA7
:1007D000020E75EB030E22BFB61A754640EA9C0066
:1007E0005B084FEA3202B6EB020E75EB030E22BF36
:1007F000B61A754640EADC0055EA060E18D04FEAF4
:10080000051545EA16754FEA06164FEAC30343EA93
:1008100052734FEAC2025FEA1C1CC0D111F4801F60
:100820000BD141EA00014FF000004FF0004CB6E759
:1008300011F4801F04BF01430020B4F1FD0C88BFF8
:10084000BCF5E06F3FF6AFAEB5EB030C04BFB6EB03
:10085000020C5FEA500C50F1000041EB045170BDF6
:100860000EF0004E4EEA113114EB5C04C2BFD4EB23
:100870000C0541EA045170BD41F480114FF0000EA7
:10088000013C90E645EA060E8DE60CEA135594EA23
:100890000C0F08BF95EA0C0F3FF43BAF94EA0C0F26
:1008A0000AD150EA01347FF434AF95EA0C0F7FF49B
:1008B00025AF104619462CE795EA0C0F06D152EAEF
:1008C00003353FF4FDAE1046194622E750EA4106D3
:1008D00018BF52EA43067FF4C5AE50EA41047FF4E4
:1008E0000DAF52EA43057FF4EBAE12E74FF0FF3C49
:1008F00006E000BF4FF0010C02E000BF4FF0010C1A
:100900004DF804CD4FEA410C7FEA6C5C4FEA430C92
:1009100018BF7FEA6C5C1BD001B050EA410C0CBFE1
:1009200052EA430C91EA030F02BF90EA020F002043
:10093000704710F1000F91EA030F58BF994208BFAA
:1009400090422CBFD8176FEAE37040F00100704767
:100950004FEA410C7FEA6C5C02D150EA013C07D1BE
:100960004FEA430C7FEA6C5CD6D152EA033CD3D009
:100970005DF8040B704700BF8446104662468C4603
:100980001946634600E000BF01B5FFF7B7FF002836
:1009900048BF10F1000F01BD4DF808EDFFF7F4FF5F
:1009A0000CBF012000205DF808FB00BF4DF808EDEA
:1009B000FFF7EAFF34BF012000205DF808FB00BF0D
:1009C0004DF808EDFFF7E0FF94BF012000205DF82F
:1009D00008FB00BF4DF808EDFFF7CEFF94BF0120E4
:1009E00000205DF808FB00BF4DF808EDFFF7C4FFDD
:1009F00034BF012000205DF808FB00BF4FEA410230
:100A000012F5001215D211D56FF47873B3EB625260
:100A100012D94FEAC12343F0004343EA505311F087
:100A2000004F23FA02F018BF404270474FF0000019
:100A3000704750EA013005D111F0004008BF6FF057
:100A4000004070474FF00000704700BF4A0011D2CD
:100A500012F5001211D20DD56FF47873B3EB625218
:100A60000ED44FEAC12343F0004343EA505323FA24
:100A700002F070474FF00000704750EA013002D199
:100A80004FF0FF3070474FF0000070474FEA4102CF
:100A9000B2F1E04324BFB3F5001CDCF1FE5C0DD9DC
:100AA00001F0004C4FEAC0024CEA5070B2F1004F26
:100AB00040EB830008BF20F00100704711F0804F29
:100AC00021D113F13872BCBF01F00040704741F4EE
:100AD00080114FEA5252C2F11802C2F1200C10FAF2
:100AE0000CF320FA02F018BF40F001004FEAC123D6
:100AF0004FEAD32303FA0CFC40EA0C0023FA02F37A
:100B00004FEA4303CCE77FEA625307D150EA01334F
:100B10001EBF4FF0FE4040F44000704701F000401F
:100B200040F0FE4040F40000704700BF80F00040FD
:100B300002E000BF81F0004142001FBF5FEA4103B5
:100B400092EA030F7FEA226C7FEA236C6AD04FEAB5
:100B50001262D2EB1363C1BFD218414048404140FA
:100B6000B8BF5B42192B88BF704710F0004F40F4AC
:100B7000000020F07F4018BF404211F0004F41F4C8
:100B8000000121F07F4118BF494292EA030F3FD094
:100B9000A2F1010241FA03FC10EB0C00C3F12003A7
:100BA00001FA03F100F0004302D5494260EB400036
:100BB000B0F5000F13D3B0F1807F06D340084FEAA1
:100BC000310102F10102FE2A51D2B1F1004F40EB96
:100BD000C25008BF20F0010040EA030070474900FE
:100BE00040EB0000013A28BFB0F5000FEDD2B0FA9B
:100BF00080FCACF1080CB2EB0C0200FA0CF0AABFBE
:100C000000EBC25052421843BCBFD040184370475B
:100C100092F0000F81F4000106BF80F40000013261
:100C2000013BB5E74FEA41037FEA226C18BF7FEA38
:100C3000236C21D092EA030F04D092F0000F08BF7A
:100C40000846704790EA010F1CBF0020704712F061
:100C50007F4F04D1400028BF40F00040704712F1A0
:100C600000723CBF00F50000704700F0004343F005
:100C7000FE4040F4000070477FEA226216BF08463B
:100C80007FEA23630146420206BF5FEA412390EAFE
:100C9000010F40F4800070474FF0000304E000BFF4
:100CA00010F0004348BF40425FEA000C08BF7047A5
:100CB00043F0964301464FF000001CE050EA010269
:100CC00008BF70474FF000030AE000BF50EA01027E
:100CD00008BF704711F0004302D5404261EB41016B
:100CE0005FEA010C02BF84460146002043F0B64390
:100CF00008BFA3F18053A3F50003BCFA8CF2083AB5
:100D0000A3EBC25310DB01FA02FC634400FA02FCBD
:100D1000C2F12002BCF1004F20FA02F243EB0200C4
:100D200008BF20F00100704702F1200201FA02FC26
:100D3000C2F1200250EA4C0021FA02F243EB020019
:100D400008BF20EADC7070474FF0FF3C06E000BFB0
:100D50004FF0010C02E000BF4FF0010C4DF804CD44
:100D60004FEA40024FEA41037FEA226C18BF7FEA54
:100D7000236C11D001B052EA530C18BF90EA010F56
:100D800058BFB2EB030088BFC81738BF6FEAE170E5
:100D900018BF40F0010070477FEA226C02D15FEA81
:100DA000402C05D17FEA236CE4D15FEA412CE1D0ED
:100DB0005DF8040B704700BF844608466146FFE7B4
:100DC0000FB5FFF7C9FF002848BF10F1000F0FBD96
:100DD0004DF808EDFFF7F4FF0CBF012000205DF88F
:100DE00008FB00BF4DF808EDFFF7EAFF34BF012014
:100DF00000205DF808FB00BF4DF808EDFFF7E0FFAD
:100E000094BF012000205DF808FB00BF4DF808EDFD
:100E1000FFF7D2FF94BF012000205DF808FB00BF60
:100E20004DF808EDFFF7C8FF34BF012000205DF842
:100E300008FB00BF80EA010C1CF0030F37D110F053
:100E4000030C20F0030021F0030150F8042B08BF2D
:100E500051F8043B0ED08CF0030C6FF07F434FEA47
:100E6000CC0C23FA0CFC51F8043B42EA0C0243EA96
:100E70000C0300BFA2F1013C9A4201BF2CEA020C14
:100E80001CF0803F50F8042B51F8043BF2D04FEA9D
:100E900002604FEA1222012828BFB0EB036F08BF9F
:100EA0001B0AF4D003F0FF03000EC01A704710F0C5
:100EB000030F0AD010F8012B11F8013B012A28BFBB
:100EC0009A42F4D0A2EB030070474DF8045D50F84D
:100ED000042B01F0030521F0030151F8043B022D1E
:100EE00026D04DD822F07F45B5EB132FA2F1013C5F
:100EF0002CEA020C0DD11CF0803C08BF51F8043BD9
:100F00000AD185EA0205B5EB036F0CD150F8042B2A
:100F1000E8E74FEA13235BE03CF07F4C54D10B78B9
:100F20004FEA126554E04FEA126503F0FF034FE009
:100F30004FEA0245A2F1013C4FEA15452CEA020CAA
:100F4000B5EB134F18D11CF0803C08BF51F8043B9F
:100F500007D185EA0205B5EB034F09D150F8042B00
:100F6000E6E75FEA0C4C2FD10B884FEA12452FE0E1
:100F70004FEA03434FEA12454FEA134328E000BF0C
:100F800002F0FF05B5EB136FA2F1013C2CEA020C55
:100F90000DD11CF0803C08BF51F8043B0AD185EA12
:100FA0000205B5EB032F0AD150F8042BE8E74FEA0E
:100FB00013630DE012F0FF0F06D051F8043B4FEA27
:100FC000122523F07F4303E04FF0000020BC704760
:100FD00005F0FF0203F0FF00012828BF904204BF84
:100FE0002D0A1B0AF4D0A2EB000020BC704700BF02
:100FF000844641EA000313F0030349D1403A23D366
:101000000B6803604B6843608B688360CB68C36088
:101010000B6903614B6943618B698361CB69C36170
:101020000B6A03624B6A43628B6A8362CB6AC36258
:101030000B6B03634B6B43638B6B8363CB6BC36340
:1010400040304031403ADBD230320BD30B68036082
:101050004B6843608B688360CB68C360103010318D
:10106000103AF3D20C3205D351F8043B40F8043B5C
:10107000043AF9D2043208D0D2071CBF11F8013B60
:1010800000F8013B01D30B8803806046704700BF26
:10109000082A13D38B07B1D010F00303AED0C3F1ED
:1010A0000403D21ADB071CBF11F8013B00F8013B17
:1010B000A4D331F8023B20F8023B9FE7043AD9D38E
:1010C000013A11F8013B00F8013BF9D20B780370AB
:1010D0004B7843708B788370604670474FEA410CC1
:1010E0007FEA6C5C02D150EA013C0AD14FEA430C22
:1010F0007FEA6C5C02D152EA033C02D14FF000005F
:1011000070474FF00100704753B94AB9002908BF32
:1011100000281CBF4FF0FF314FF0FF3000F076B9D0
:10112000ADF1080C6DE904CE00F006F8DDF804E03E
:10113000DDE9022304B070472DE9F047089E0D4613
:1011400004468846002B4DD18A42944668D9B2FAAB
:1011500082F252B101FA02F3C2F1200120FA01F148
:101160000CFA02FC41EA030894404FEA1C41B8FB28
:10117000F1F71FFA8CFE01FB178807FB0EF0230C1A
:1011800043EA084398420AD91CEB030307F1FF35F1
:1011900080F01E81984240F21B81023F63441B1A7B
:1011A000B3FBF1F001FB103300FB0EFEA4B244EAE6
:1011B0000344A6450AD91CEB040400F1FF3380F078
:1011C0000981A64540F20681644402380021A4EB5F
:1011D0000E0440EA07401EB10023D440C6E9004394
:1011E000BDE8F0878B4208D9002E00F0EE80002188
:1011F000C6E900050846BDE8F087B3FA83F1002987
:101200004AD1AB4202D3824200F2FC80841A65EBE1
:10121000030301209846002EE2D0C6E90048DFE72C
:1012200002B9FFDEB2FA82F2002A40F09180A1EB0F
:101230000C0001214FEA1C471FFA8CFEB0FBF7F3AC
:1012400007FB1300250C45EA00450EFB03F0A842FE
:1012500008D91CEB050503F1FF3802D2A84200F2C1
:10126000CE8043462D1AB5FBF7F007FB10550EFB59
:1012700000FEA4B244EA0544A64508D91CEB0404C8
:1012800000F1FF3502D2A64500F2B6802846A4EB55
:101290000E0440EA03409EE7C1F120078B4022FA8A
:1012A00007FC4CEA030C25FA07FA4FEA1C49BAFB83
:1012B000F9F820FA07F309FB18AA8D401FFA8CFEF3
:1012C0001D4300FA01F308FB0EF02C0C44EA0A441B
:1012D000A04202FA01F20BD91CEB040408F1FF3A18
:1012E00080F08880A04240F28580A8F10208644422
:1012F000241AB4FBF9F009FB104400FB0EFEADB25A
:1013000045EA0444A64508D91CEB040400F1FF3566
:101310006CD2A6456AD90238644440EA0840A0FB72
:101320000295A4EB0E04AC42C846AE4656D353D049
:10133000002E69D0B3EB080264EB0E0422FA01F32D
:1013400004FA07F71F43CC40C6E90074002147E7C1
:101350000CFA02FCC2F1200125FA01F34FEA1C4706
:1013600020FA01F195400D43B3FBF7F107FB113370
:101370001FFA8CFE280C40EA034001FB0EF3834267
:1013800004FA02F408D91CEB000001F1FF382FD257
:1013900083422DD902396044C01AB0FBF7F307FB32
:1013A0001300ADB245EA004503FB0EF0A84208D990
:1013B0001CEB050503F1FF3816D2A84214D9023BF5
:1013C0006544281A43EA014138E73146304607E7C9
:1013D0002F46E4E61846F9E64B45A9D2B9EB0208D8
:1013E00065EB0C0E0138A3E74346EAE7284694E78D
:1013F0004146D1E7D0467BE76444023847E7023BE9
:1014000065442FE7084606E73146E9E6704700BF26
:1014100000B585B000238DF80C308DF80D000A233F
:101420000093022303AA7821024802F007F805B0CE
:101430005DF804FBDC0D002080B582B002AF01F145
:10144000080303F4FC73ADEB030D02AA40238DF8EF
:1014500008304FF0000C07E00CF1010E10F80CC042
:1014600002F80EC05FFA8EFC8C45F5D30A23009378
:101470004B1C7821024801F0E1FFBD4680BD00BF52
:10148000DC0D002010B50C4640F0B000FFF7C0FFA7
:10149000200940F01000FFF7BBFF04F00F00FFF73A
:1014A000B7FF10BD0246012002E002FB00F0194622
:1014B0004B1E0029F9D170472DE9F0430746BDF9CD
:1014C0001C60451E0020844604E00CF101046546C2
:1014D0000FFA84FCBC4525DA32F91C80B045D4BF34
:1014E0004FF000094FF0010932F91540B442D4BF62
:1014F0004FF0000E4FF0010EF145E6D031F915E046
:1015000031F91C50AEEB050EA6EB080909FB0EFEE7
:10151000A4EB08049EFBF4FE7544AB42D5DA80F0E0
:101520000100D2E7BDE8F0832DE9F041884614467A
:101530001D46FEF75FFF06460F464046FEF75AFF80
:1015400032463B4608F09CFB11A3D3E90023FFF78A
:10155000E5F80022104BFEF7B7FFFFF74FFA00B295
:10156000AC4205DAA04209DBA8420ADD002006E011
:10157000A04208DAA84208DD002000E00020BDE813
:10158000F0810120FBE70120F9E70120F7E700BF28
:101590001F85EB51B81E09400080664010B500243D
:1015A0000BE000212046FFF76DFF8021044800EB8F
:1015B000C410FFF741FF0134E4B2072CF1D910BD8C
:1015C000DC09002000200BE0084A02EBC0120021D9
:1015D000D1540133DBB213F0800FF5D00130C0B22B
:1015E000072801D80023F6E7704700BFDC09002078
:1015F00008B5AE20FFF70CFFD520FFF709FF8020CC
:10160000FFF706FFA820FFF703FF3F20FFF700FFCB
:10161000D320FFF7FDFE0020FFF7FAFE4020FFF782
:10162000F7FEA120FFF7F4FEC820FFF7F1FEDA2055
:10163000FFF7EEFE1220FFF7EBFE8120FFF7E8FE3A
:10164000CF20FFF7E5FED920FFF7E2FEF120FFF7FC
:10165000DFFEDB20FFF7DCFE3020FFF7D9FEA42001
:10166000FFF7D6FEA620FFF7D3FE8D20FFF7D0FEB2
:101670001420FFF7CDFEAF20FFF7CAFEFFF7A2FF51
:10168000FFF78CFF08BD000010F0800F31D170B55E
:1016900014461D463F292BD81318802B02DDC0F1BC
:1016A0008004E4B20E466B18402B1CDDC1F14005EE
:1016B000EDB218E04FEAD10E01F00702012303FA60
:1016C00002F20C4B03EBCE1E1EF80C3023EA020391
:1016D0000EF80C300CF1010C5FFA8CFC23189C45C1
:1016E000E8DB0131C9B2AB19994201DA8446F5E76A
:1016F00070BD7047DC0900202DE9F04F83B00193E5
:101700000C9F10F0800F04D180460D4616463F29ED
:1017100002D903B0BDE8F08FFFF7B6FF4FF0000B22
:1017200033E00133DBB2B3422BD208EB03017F2954
:1017300027DC0AEBD502072AEBDC0AFB063417F894
:1017400004E005F0070C0EFA0CF9154800EBC21086
:1017500010F801E04EEA090E00F801E0062AE0DC8C
:1017600002F1010E385DCCF1080C40FA0CF00C4A85
:1017700002EBCE1212F801C04CEA000C02F801C0D4
:10178000CFE70BF1010B5FFA8BFB019B013B05D40B
:10179000DA46BBEBE30FBCDC0023C4E70733F7E713
:1017A000DC09002000B583B0082B04D0062B0CD038
:1017B00003B05DF804FB203A0A4B03EB02120092DF
:1017C00010230822FFF798FFF2E7203A02EB4202CB
:1017D000054B03EB4202009208230622FFF78CFF21
:1017E000E6E700BFB8A400087CA200082DE9F0419C
:1017F00080460F4616461D4600240AE005FB04F00D
:10180000C0B240442B463946C0B2FFF7CBFF01348B
:10181000E4B2325D002AF1D1BDE8F0812DE9F04754
:101820008246894690461E469DF8207000251CE0A1
:1018300007FB05F4E4B25444E4B2711B01390A20F9
:10184000FFF730FEB8FBF0F00A4AA2FB0032D208E4
:1018500002EB8202A0EB420230323B46D2B2494652
:101860002046FFF79FFF0135EDB2B542E0D3BDE85A
:10187000F08700BFCDCCCCCC2DE9F04781468A461D
:101880001E469DF82070B2F1000805DB3B462B2276
:10189000FFF788FF002122E03B462D22FFF782FF61
:1018A000C8F10008F6E74C1CE4B207FB0495EDB262
:1018B000711A01390A20FFF7F5FDB8FBF0F00A4A6A
:1018C000A2FB0032D20802EB8202A0EB42023032CD
:1018D0003B46D2B251462846FFF764FF2146B1424B
:1018E000E1D3BDE8F08700BFCDCCCCCC2DE9F843E7
:1018F0008146884617461D469DF8206000240BE06F
:1019000006FB04F0C0B24844334637324146C0B209
:10191000FFF748FF0134E4B2AC4215D2291B01396C
:101920001020FFF7BFFDB7FBF0F202F00F02092A0B
:10193000E6D806FB04F0C0B2484433463032414694
:10194000C0B2FFF72FFFE5E7BDE8F8832DE9F047C8
:101950008246894690461E469DF82070002515E077
:1019600007FB05F4E4B25444E4B2711B01390220D0
:10197000FFF798FDB8FBF0F202F001023B4630326F
:1019800049462046FFF70EFF0135EDB2B542E7D3D9
:10199000BDE8F0872DE9F04F85B004460E4693462A
:1019A00098469DF838709DF83CA09DF84050002264
:1019B000002358464146FFF70DF8002844D02B4637
:1019C0002B2231462046FFF7EDFE58464146FFF7F1
:1019D0003DF88146FEF7FEFC02460B46584641465E
:1019E000FEF7BAFBCDE9020151460A20FFF75AFD86
:1019F0008046FEF7EFFCDDE90223FEF765FD08F007
:101A0000F3F8FFF723F88346B0FBF8F2601900956E
:101A10003B464A443146C0B2FFF700FF07FB055082
:101A200020442B462E223146C0B2FFF7BBFEB81C25
:101A300000FB0540009553465A463146C0B2FFF7B9
:101A4000EDFE05B0BDE8F08F2B462D223146204635
:101A5000FFF7A8FE08F10048B7E700002DE9F043C2
:101A600085B080460F461646002303931D4619E0B5
:101A70006B1C1F4880FB0320A0EBE370013809EBCF
:101A8000C9091C4B03EB890909F1040308EB001099
:101A9000009310231A463946C0B2FFF72DFE0023EB
:101AA0000135EDB2725DFAB103F11001694401F83C
:101AB000042C0133DBB2022BF2D911336B44002426
:101AC00003F8044CA14604EBC4030A4A02EB83006A
:101AD00012F82330002BCBD003A9FFF7ABF9002875
:101AE000C6D00134E4B2EDE705B0BDE8F08300BF35
:101AF0005655555580A1000808B470B58BB0044602
:101B00000D4616460FAA52F8041B019202A802F0D5
:101B1000E1F8334602AA29462046FFF767FE0BB0DC
:101B2000BDE8704001B0704710F0800F0DD13F2923
:101B30000BD84FEAD10C01F0070101228A40034B78
:101B400003EBCC13195C114319547047DC090020D6
:101B500010F0800F0FD13F290FD8CA08094B03EBB3
:101B6000C2131B5C01F0070143FA01F111F0010FF0
:101B700005D10020704700207047002070470120E9
:101B8000704700BFDC0900202DE9F84F06B20FFABC
:101B900081F81546984544D081461C46964250D05F
:101BA000964203DC4446984635461646444555DD84
:101BB000644224B2C8F100080FFA88F84FF0010916
:101BC000A8EB0403721B93424BDC4346B0461E460F
:101BD00023462C461D464FF0000A1FFA88F2A3B296
:101BE000D71A3FB2761B1FFA86FB36B24FEA4B0B71
:101BF0001FFA8BFBF71B7F00BFB29E1A5E4436B202
:101C0000B9F1000F02D0BAF1000F2DD1B9F1000FD8
:101C100030D1BAF1000F33D0E1B2E8B2FFF784FF60
:101C200046E00F46964208DC3546164605E0394642
:101C3000E8B2FFF779FF01352DB2B542F7DDBDE817
:101C4000F88F984501DC444698464445F7DCE1B2FC
:101C50004846FFF769FF013424B2F6E74FF0000968
:101C6000AEE74FF0010AB8E76142C9B2E8B2FFF748
:101C70005BFF1DE06942C9B2E0B2FFF755FF17E014
:101C8000E9B2E0B2FFF750FF12E05E4436B21AE06C
:101C90004142C9B2E8B2FFF747FF09E06942C9B261
:101CA000C0B2FFF741FF03E0E9B2C0B2FFF73CFF6B
:101CB0004445C4DA0134A0B224B2002EE5DB01357C
:101CC0002DB23E4436B2B9F1000F02D0BAF1000F86
:101CD000DED1B9F1000FE1D1BAF1000FE4D0C1B209
:101CE000E8B2FFF721FFE3E72DE9F84380460D4610
:101CF00091461F469DF82030A3B1064633E02946A1
:101D00002046FFF711FFE919C9B20139C9B22046CF
:101D1000FFF70AFF0134E4B208EB09039C42EEDB53
:101D20002C460FE00446F7E721464046FFF7FCFE4D
:101D300008EB0900C0B201382146C0B2FFF7F4FE3B
:101D40000134E4B2EB199C42EEDBBDE8F883214696
:101D50003046FFF7E9FE0134E4B205EB070C6445B9
:101D6000F5DB0136F6B208EB09039E42EDDA2C46AC
:101D7000F3E72DE9F04F87B083468A4691461C462B
:101D80009DF840709DF844609DF84830ADF8100013
:101D9000ADF81220ADF81470ADF80810ADF80A4097
:101DA000ADF80C60C3B1904228D80546BD4200D9B9
:101DB0003D46A24524D8D046B04500D9B046CB45D3
:101DC00000D3D946B94500D34F46A24500D3544667
:101DD000B4422CD326462AE02346FFF7D5FE3346ED
:101DE0003A4651465846FFF7CFFE33463A4621461B
:101DF0004846FFF7C9FE07B0BDE8F08F1546D5E7A6
:101E0000A046D9E70134E4B2A6420ED323B2009330
:101E10002BB202AA04A90320FFF74EFB0028F1D041
:101E200021462846FFF780FEECE70135EDB2AF42D0
:101E3000E1D34446E8E72DE9F04F89B0064601902A
:101E40008A4615461F46079394B2C2F101030393D5
:101E50000FFA82FB5118C9B2FFF766FEAAEB050123
:101E6000C9B23046FFF760FEA8195146C0B2FFF76D
:101E70005BFE701B5146C0B2FFF756FE6FB1644265
:101E800024B2354607E00AEB0401C9B22846FFF741
:101E90004BFE013424B25C45F5DB0023029347E09E
:101EA00063009BB2134401331BB20393E4B2019E5F
:101EB000A719FFB25FFA8BF505EB0A03DBB20493B7
:101EC00019463846FFF730FE0196AE19F6B204EB1C
:101ED0000A03DAB2059211463046FFF725FE019853
:101EE000A0EB04085FFA88F8AAEB05095FFA89F904
:101EF00049464046FFF718FE019B5D1BEDB2AAEB79
:101F00000404E4B221462846FFF70EFE494638464F
:101F1000FFF70AFE21463046FFF706FE04994046C9
:101F2000FFF702FE05992846FFF7FEFD079BD3B990
:101F3000029B5B4541DABDF80830069301339CB241
:101F40001BB20293039A002AAADB0BF1FF3B0FFAA4
:101F50008BFB029BA3EB0B03039A02EB43030133BE
:101F60001BB20393A2E7CBF1000424B20DE00AEB0D
:101F700004095FFA89F949463846FFF7D5FD494615
:101F80004046FFF7D1FD013424B2A345EFDC069BA8
:101F9000DC4324B2DDF808800CE00AEB0407FFB252
:101FA00039462846FFF7C0FD39463046FFF7BCFDED
:101FB000013424B24445F0DBBAE709B0BDE8F08F44
:101FC0002DE9F04F8DB00746894615461E460B9306
:101FD0009DF85880CDF810801CB203FB03F30A93E0
:101FE0001846FEF707FACDE9080105FB05F305934E
:101FF0001846FEF7FFF982468B46CDE906AB7042E4
:10200000FEF7F8F90022BA4BFEF7A8F802460B4695
:1020100050465946FEF758FA02460B46DDE90801DC
:10202000FEF79CF8FEF732FD834643468BB17542BE
:102030002DB20CE009EB0506F6B231463846FFF743
:1020400073FD31463846FFF76FFD01352DB2A542CD
:10205000F0DB0B9D05EB0906F6B231463846FFF77B
:1020600063FDA9EB0505EDB229463846FFF75CFD97
:1020700031463846FFF758FD29463846FFF754FDEC
:1020800000230093CDF804B0DDF828B034E06800F8
:10209000033000FB0BF0FEF703FE01463046FEF76F
:1020A0004BFD0190009B01331FFA83FA1BB2009392
:1020B000049B002B59D15FFA8AFA0AEB0706F6B2A5
:1020C000E5B205EB09085FFA88F841463046FFF7AC
:1020D0002BFDA7EB0A0A5FFA8AFAA9EB0505EDB218
:1020E00029465046FFF720FD41465046FFF71CFDAC
:1020F00029463046FFF718FD009B1D4603FB0BB039
:10210000FEF778F9CDE902012046FEF773F90022C7
:10211000774BFEF721F802460B46DDE90601FEF794
:10212000D3F902460B46DDE90201FEF73FFC002829
:1021300033D00021019E3046FEF75EFE0028A6D176
:1021400068000330C4EBC4735B000233059A02FBE2
:1021500003F300FB0B30FEF7A3FD01460198FEF7E9
:10216000EBFC0190013C24B29CE7664236B211E0E0
:102170005FFA8AF509EB06085FFA88F8E819414624
:10218000C0B2FFF7D1FC781B4146C0B2FFF7CCFCD0
:10219000013636B2B442EBDC8DE72846FEF72AF969
:1021A0000022534BFDF7DAFF82468B4602460B4670
:1021B000DDE90801FEF788F902460B46504659460C
:1021C000FEF782F982468B46631E059D03FB05F0F0
:1021D00003FB00F0FEF70EF952465B46FDF7BEFF2B
:1021E00082468B460B9B05FB03F003FB00F0FEF7DA
:1021F00001F902460B4650465946FDF7ADFFFEF782
:1022000045FC824640E00A9B009D05FB0330C4EB81
:10221000C4735B000333059A02FB03F303EB400036
:10222000FEF73EFD01465046FEF786FC82462B46F1
:1022300001331BB20093A5B26C1E1FFA84FB24B2BB
:10224000049B002B37D19DF8006006EB07085FFA6E
:1022500088F85FFA8BF505EB090B5FFA8BFB5946A3
:102260004046FFF761FCBE1BF6B2A9EB0505EDB2D7
:1022700029463046FFF758FC59463046FFF754FCD4
:1022800029464046FFF750FC002C2DDD002150462A
:10229000FEF7B2FD0028B6D1C4EBC4704000033095
:1022A000059B03FB00F0FEF7FBFC01465046FEF7E2
:1022B00043FC8246BFE7C5F101052DB211E09DF850
:1022C000006009EB05085FFA88F8F0194146C0B2D2
:1022D000FFF72AFCB81B4146C0B2FFF725FC0135C9
:1022E0002DB2A542EBDBAEE70DB0BDE8F08F00BF2D
:1022F0000000E03F2DE9F04F87B001908B469046FB
:102300001E46BDF940709DF84430049394B2C2F16A
:102310000103039315B23B46324629460020FFF7DE
:1023200003F9D8B9644224B23B4632462146002024
:10233000FFF7FAF8C8B93B46324600212846FFF7B6
:10234000F3F8C8B93B46324600212046FFF7ECF8C7
:10235000D0B9049B9BBB4FF0000983E008EB0B0155
:10236000C9B20198FFF7E0FBDCE7ABEB0801C9B2AB
:102370000198FFF7D9FBDEE7019B08EB0300594604
:10238000C0B2FFF7D1FBDDE7019BA3EB0800594684
:10239000C0B2FFF7C9FBDCE7013424B2AC42DADAA1
:1023A0003B46324621460020FFF7BEF80028F3D016
:1023B0000BEB0401C9B24046FFF7B6FBECE7DDF8D2
:1023C0000480EBE75B009BB2134401331BB2039321
:1023D0003B46324629464846FFF7A6F800285BD11F
:1023E0003B46324649462846FFF79EF800285DD115
:1023F000E44324B2C5F1000A0FFA8AFA3B4632469A
:1024000051462046FFF790F8002859D13B46324606
:1024100021465046FFF788F800285BD13B463246FC
:1024200051464846FFF780F800285DD13B463246CA
:1024300021462846FFF778F800285FD13B46324610
:1024400029462046FFF770F8002861D13B46324606
:1024500049465046FFF768F8002863D1049B002BDB
:1024600040F09480A94580F2C3801FFA89F404F1FA
:1024700001091FFA89F302930FFA89F9039A002AD6
:10248000A0DB013D2DB2A9EB0503039A02EB430348
:1024900001331BB203939BE70BEB0501019B029AEF
:1024A0009818C9B2C0B2FFF73FFB99E7029B0BEB4C
:1024B0000301019B5819C9B2C0B2FFF735FB97E77A
:1024C000ABEB0501019B029A981AC9B2C0B2FFF7A3
:1024D0002BFB9BE7029BABEB0301019B581BC9B293
:1024E000C0B2FFF721FB99E7ABEB0501019B029A14
:1024F0009818C9B2C0B2FFF717FB97E7029BABEB86
:102500000301019B5819C9B2C0B2FFF70DFB95E753
:102510000BEB0501019B029A981AC9B2C0B2FFF7F2
:1025200003FB93E7029B0BEB0301019B581BC9B212
:10253000C0B2FFF7F9FA91E70BEB0801019B03EB3F
:102540000A00C9B2C0B2FFF7EFFA0DE008F10108C6
:102550000FFA88F845451FDD3B463246414648465E
:10256000FEF7E2FF0028E7D13B46324641462046CF
:10257000FEF7DAFF0028E9D00BEB0801019BA3EB83
:102580000A00C9B2C0B2FFF7CFFADFE7D046CDF8F4
:1025900014A0DDF808A0DDE7DDF814A0DDF8048064
:1025A0000AE00BEB0401A8EB0500C9B2C0B2FFF7CB
:1025B000BBFA0CE0013424B24C45BFF653AF3B46A6
:1025C000324621465046FEF7AFFF0028E9D13B4690
:1025D000324621462846FEF7A7FF0028EAD00BEB3B
:1025E000040108EB0500C9B2C0B2FFF79DFAE1E7AC
:1025F00007B0BDE8F08F0000F0B589B00024049466
:102600000594069407942B4B9A6942F010029A6144
:102610009A6902F010020092009A9A6942F0200230
:102620009A619A6902F020020192019A9A6942F035
:1026300004029A619A6902F004020292029A9A696B
:1026400042F008029A619B6903F008030393039B1D
:10265000194F22461E21384600F07AFC174D012200
:102660001021284600F074FC22462021284600F064
:102670006FFC1E23049301260596069402240794FA
:1026800004A9384600F054FB1023049305960696DF
:1026900007940DEB0301284600F04AFB2023049326
:1026A00005960694079404A9284600F041FB09B05A
:1026B000F0BD00BF0010024000080140000C0140C6
:1026C00072B6FEE708B50A480A4B03600A4B43603E
:1026D00000238360C3604FF48042026143618361E1
:1026E000C361036200F0CCFD00B908BDFFF7E8FF4D
:1026F000DC0D002000540040801A060000B591B0A7
:102700002822002106A801F093FA002301930293E6
:10271000039304930593012206924FF480330793A9
:102720000A9202220D920E934FF4E0130F9306A823
:1027300000F056FF80B90F2301930221029100237C
:1027400003934FF480620492059301A801F07AF993
:1027500020B911B05DF804FBFFF7B2FFFFF7B0FF3F
:1027600080B584B000F04EFAFFF7C8FFFFF744FFD2
:10277000FFF7A8FF944C01220221204600F0E8FB5D
:1027800001220421204600F0E3FB0122082120461B
:1027900000F0DEFB01221021204600F0D9FB4FF4AF
:1027A0007A7000F053FA00220221204600F0D0FB9C
:1027B00000220421204600F0CBFB00220821204605
:1027C00000F0C6FB00221021204600F0C1FBFEF7FE
:1027D0000FFF01220221204600F0BAFB08237B4AAA
:1027E00000210846FFF702F80623412212210020AB
:1027F000FEF7D8FF0623764A12211020FEF7F6FFD7
:1028000006240094052343F239021C210020FFF71F
:1028100005F8009402236FF041021C212820FFF7E5
:102820002BF8009404234AF2A5521C214620FFF7FE
:102830005DF800940823A52226210020FFF786F8E2
:10284000029402230193032300935DA3D3E90023A1
:1028500026213C20FFF79EF85E4A30210020FFF73A
:10286000FDF85D4B009310231A4630216020FEF7DF
:1028700043FF0094594B224612216020FFF73CF998
:10288000FEF78CFE40F6B83000F0E0F9FEF79AFE55
:1028900008210520FFF748F908210520FFF758F91E
:1028A00000286DD023464E4A04210A20FEF79EFFE1
:1028B0000F237F2200212820FFF766F900237F22C3
:1028C0000F212820FFF760F9002400940F230C2229
:1028D00014212046FFF708FA012500950F230C224A
:1028E00028212046FFF700FA0294232301931E2794
:1028F00000971923282214210846FFF73AFA029577
:102900003726019600972D23282211461420FFF721
:1029100030FA234608221B213046FFF78CFA2B465B
:1029200008222F213046FFF786FA009408230C2254
:102930001B215220FFF744FB009508230C222F2176
:102940005220FFF73DFB01947D24009419230F22B0
:1029500012216E20FFF7CEFC0195009419230F225F
:1029600026216E20FFF7C6FCFEF718FE40F2DC5071
:1029700000F06CF92A460421134800F0E9FA0DE052
:102980000623184A04210A20FEF730FF90E7013B96
:10299000154A13604FF47A7000F058F94FF47A70CA
:1029A00000F054F9104B1B68002B03F00102B8BF74
:1029B0005242012AEBD101330B4A1360EAE700BF10
:1029C000CDCCCCCCCCDC5E4000080140A8AA0008ED
:1029D000BCAA0008CCAA000860A10008E0AA000870
:1029E000E8AA0008ECAA00080000002082B00E4B04
:1029F0009A6942F001029A619A6902F0010200921A
:102A0000009ADA6942F08052DA61DB6903F08053A0
:102A10000193019B054A536823F0E06343F0806310
:102A2000536002B0704700BF001002400000014038
:102A300010B586B0002302930393049305930268B4
:102A4000114B9A4201D006B010BD104CA36943F05F
:102A50000803A361A36903F008030093009BC0234C
:102A60000293122303930323059302A9084800F05D
:102A70005FF9E36943F40013E361E36903F40013CE
:102A80000193019BDFE700BF0054004000100240AB
:102A9000000C0140FEE7FEE7FEE7FEE7FEE77047B9
:102AA0007047704708B500F0BFF808BD01207047B7
:102AB00008B501F093F8162303604FF0FF3008BD0E
:102AC00008B54FF0FF31FFF7F3FFFEE770B50C4696
:102AD0001646002506E0AFF30080214601F8010B01
:102AE00001350C46B542F6DB304670BD70B50C467C
:102AF0001646002504E014F8010BAFF30080013501
:102B0000B542F8DB304670BD4FF0FF3070474FF4F0
:102B100000534B6000207047012070470020704731
:102B200010B503460C4A0D490D48006840B10C48E9
:102B300000680344521A934206D8094A136010BD34
:102B40000748084C0460F2E701F048F80C230360E2
:102B50004FF0FF30F3E700BF002800200004000022
:102B6000300E0020800E002070470000FFF7FCFFB1
:102B70000B480C490C4A002302E0D458C4500433DB
:102B8000C4188C42F9D3094A094C002301E01360B0
:102B90000432A242FBD301F027F8FFF7E1FD7047B2
:102BA00000000020C00900209CAF0008C0090020E0
:102BB000800E0020FEE7000010B504460E4B18788A
:102BC0004FF47A73B3FBF0F30C4A1068B0FBF3F0E8
:102BD00000F09AF868B90F2C01D901200AE0002210
:102BE00021464FF0FF3000F057F8054B1C600020E5
:102BF00000E0012010BD00BF0800002004000020FC
:102C00000C00002008B5074A136843F01003136056
:102C1000032000F02FF80F20FFF7CEFFFFF7E6FEAE
:102C2000002008BD00200240034A1168034B1B78B6
:102C30000B441360704700BF340E002008000020D2
:102C4000014B1868704700BF340E002038B50446A9
:102C5000FFF7F6FF0546B4F1FF3F02D0044B1B78A7
:102C60001C44FFF7EDFF401BA042FAD338BD00BF64
:102C700008000020074AD36823F4E0631B041B0C00
:102C8000000200F4E060034343F0BF6343F4003309
:102C9000D360704700ED00E000B5194BDB68C3F36B
:102CA0000223C3F1070CBCF1040F28BF4FF0040C42
:102CB00003F1040EBEF1060F18D9033B4FF0FF3E9F
:102CC0000EFA0CFC21EA0C0199400EFA03F322EAF9
:102CD0000303194300280BDB0901C9B200F160406E
:102CE00000F5614080F800135DF804FB0023E5E780
:102CF00000F00F000901C9B2024B1954F4E700BFFC
:102D000000ED00E014ED00E00138B0F1807F0BD25F
:102D10004FF0E0235861054AF02182F8231000208B
:102D2000986107221A6170470120704700ED00E0AA
:102D300070B582B00024A4468BE07F4DAA4210D02B
:102D400007D97E4DAA420CD005F58035AA4208D09D
:102D500015E0A5F58015AA4203D005F57025AA4215
:102D600009D18A68002A00F0BF80012A00F0B780EC
:102D70004361082403E0A5F58015AA42F1D0BEF115
:102D8000FF0F00F2B3800646BEF1FF0F00F2B080E5
:102D90004FEA8C0233680F25954023EA050304FAB5
:102DA00002F2134333604B6813F0805F4FD0644BE3
:102DB0009A6942F001029A619B6903F00103019351
:102DC000019B4FEA9C02951C5E4B53F825600CF06A
:102DD00003039D000F23AB4026EA03065A4B98429B
:102DE00000F08C8003F58063984200F0898003F541
:102DF0008063984200F080800323AB40334302326B
:102E0000504D45F822304B6813F4801F7AD04F4A5A
:102E1000936843EA0E0393604B6813F4001F77D066
:102E20004A4AD36843EA0E03D3604B6813F4003F69
:102E300074D0464A536843EA0E0353604B6813F458
:102E4000803F71D0414A136843EA0E0313600CF1CE
:102E5000010C0A6832FA0CF36CD0012303FA0CF36C
:102E600002EA030E33EA0202F1D14A68122A3FF65F
:102E700064AF122A83D801A555F822F0632D00080B
:102E8000C92E0008D32E0008E52E00087F2D00086B
:102E90007F2D00087F2D00087F2D00087F2D000862
:102EA0007F2D00087F2D00087F2D00087F2D000852
:102EB0007F2D00087F2D00087F2D00087F2D000842
:102EC000CD2E0008D92E0008CC6858E7CC68043411
:102ED00055E7CC68083452E7CC680C344FE70361FF
:102EE00008244CE700244AE7042448E7061D4BE782
:102EF000ACF1080292004DE702237EE700237CE755
:102F000001237AE7114A936823EA0E03936083E76B
:102F10000E4AD36823EA0E03D36086E70B4A536850
:102F200023EA0E03536089E7084A136823EA0E0375
:102F300013608CE702B070BD000022100000311059
:102F40000010024000000140000801400004014060
:102F50000AB10161704709040161704703685A6949
:102F600012F4806F01D1002070476FF480625A61C3
:102F700000230363202280F83D2080F83E30026C5D
:102F800042F00402026480F83C30012070472DE9D1
:102F9000F04106460C46174698463BE0FFF750FEC8
:102FA000069BC01A404502D8B8F1000F32D1012D5E
:102FB00018D033689B6924EA03039BB2B3FA83F306
:102FC0005B099F4226D100233363202286F83D20EF
:102FD00086F83E30326C42F02002326486F83C3093
:102FE000012027E033685B6924EA03039BB2B3FA4C
:102FF00083F35B09E5E733685B6924EA030C1FFA96
:103000008CFCBCFA8CFC4FEA5C1C674511D1B8F112
:10301000FF3FC3D1C4F30745012DECD033689B6952
:1030200024EA030C1FFA8CFCBCFA8CFC4FEA5C1CF3
:10303000EBE70020BDE8F0812DE9F84305460E4698
:103040009046994653E01A6842F400721A602B6861
:103050006FF480625A6100232B63202285F83D20A3
:1030600085F83E302A6C42F004022A6485F83C3030
:1030700001204AE0FFF7E4FDA0EB0900404502D83B
:10308000B8F1000F33D1012F17D02B689B6926EAC6
:1030900003039BB2003B18BF012343B300232B6300
:1030A000202285F83D2085F83E302A6C42F020022F
:1030B0002A6485F83C30012027E02B685B6926EA0A
:1030C00003039BB2003B18BF0123E6E72B689C6912
:1030D00026EA0404A4B2003C18BF0124A4B12B6862
:1030E0005A6912F4806FAED1B8F1FF3FC2D1C6F376
:1030F0000747012FEAD12B685C6926EA0404A4B2D1
:10310000003C18BF0124E9E70020BDE8F883000077
:10311000F0B583B004460D4616461F46C36A082B19
:103120000DD0012B0BD013F5803F08D0036B122B71
:103130000AD10268136843F48073136004E02268C4
:10314000136843F4807313600097334600224FF0F6
:1031500001112046FFF71BFF80B92369B3F5804FAB
:1031600016D1236805F0FE051D613B463246134922
:103170002046FFF761FFF8B903B0F0BD23681B6874
:1031800013F4807F02D04FF4007323640320F3E72D
:10319000EB11226803F0060343F0F00313613B4692
:1031A000324607492046FFF747FF18B92368EDB2BA
:1031B0001D61DAE70120DFE70120DDE70200010001
:1031C0000800010070B504460D46164623685B6989
:1031D00013F0800F21D12046FFF7C0FEF8B9B5F1FA
:1031E000FF3FF3D0FFF72CFD801BA84201D8002D34
:1031F000ECD123685B6913F0800FE7D100232363D0
:10320000202284F83D2084F83E30226C42F02002D7
:10321000226484F83C30012000E0002070BD0120D1
:10322000FCE770B504460D46164623685B6913F04B
:10323000040F21D12046FFF791FEF8B9B5F1FF3F09
:10324000F3D0FFF7FDFC801BA84201D8002DECD184
:1032500023685B6913F0040FE7D100232363202266
:1032600084F83D2084F83E30226C42F02002226433
:1032700084F83C30012000E0002070BD0120FCE714
:10328000002800F0CC8070B5044690F83D30002B4B
:1032900077D0242384F83D302268136823F001039B
:1032A00013602268136843F40043136022681368B4
:1032B00023F40043136000F081FC62685A4B9A4289
:1032C00064D85A4B98428CBF00230123002B40F056
:1032D000A8805749A1FB00318B0C25686A6822F051
:1032E0003F0242EA91426A6021680A6A22F03F0284
:1032F00066684D4DAE424FD8013313430B622168CF
:10330000CA6922F44F4222F0FF026668464B9E4291
:103310004CD8431E7600B3FBF6F3013340F6FC7045
:10332000034278D0C3F30B031343CB6121680B68CE
:1033300023F0C003E269206A024313430B60216853
:103340008B6823F4034323F0FF032269E068024300
:1033500013438B602168CB6823F0FF036269A06987
:1033600002431343CB602268136843F001031360E8
:1033700000202064202384F83D30206384F83E0040
:1033800070BD80F83C30FFF753FB82E7294B984231
:103390008CBF0023012399E74FF4967505FB03F3D7
:1033A000254DA5FB03539B090133A6E7A368BBB9D1
:1033B000451E06EB460CB5FBFCF50135C5F30B05C8
:1033C000B5FA85F56D0945BBC3B9013806EB46036F
:1033D000B0FBF3F30133C3F30B0343F40043A3E760
:1033E000451E06EB860C0CEB8C0CB5FBFCF5013591
:1033F000C5F30B05B5FA85F56D09E4E7013806EB71
:10340000860303EB8303B0FBF3F30133C3F30B0336
:1034100043F4404388E7042386E7012384E701203F
:1034200070470120ACE700BFA08601007F841E002A
:1034300083DE1B43FF083D00D34D62102DE9F043AE
:1034400085B004460F46914698460C9EFFF7F8FB60
:10345000054694F83D00C0B2202804D00227384623
:1034600005B0BDE8F0830095192301224F4920469D
:10347000FFF78DFD002840F0928094F83C30012B3E
:1034800000F08F80012384F83C3023681A6812F022
:10349000010F03D11A6842F001021A602268136812
:1034A00023F400631360212384F83D30102384F853
:1034B0003E3000232364C4F82490A4F82A80638D4E
:1034C00023853B4BE3622B46324639462046FFF7C5
:1034D0001FFE0746002866D10023039323685A691C
:1034E00003929B690393039B11E0236C042B01D08F
:1034F0000127B4E72268136843F400731360F7E709
:103500002A4631462046FFF78CFE00282ED1238D17
:10351000002B36D02A4631462046FFF753FE0028BE
:10352000E3D1626A236812781A61606A431C63629D
:10353000618D89B2013989B26185238D013B9BB2CE
:1035400023852268516911F0040FD9D0002BD7D000
:1035500043781361636A01336362638D9BB2013BFD
:103560009BB26385238D013B2385C9E7236C042B24
:1035700001D0012773E72268136843F400731360D6
:10358000F7E72268136843F400731360202384F87C
:103590003D30002384F83E3084F83C305FE702275A
:1035A0005DE702275BE7012759E700BF0200100033
:1035B0000000FFFF82B0084B1B68084AA2FB0323F0
:1035C0005B0A00FB03F3019300BF019B5A1E0192AB
:1035D000002BF9D102B0704704000020D34D6210D7
:1035E000002800F0F18170B582B00446036813F042
:1035F000010F2CD0994B5B6803F00C03042B1DD0FA
:10360000964B5B6803F00C03082B12D06368B3F58C
:10361000803F41D0002B55D103F1804303F50433A3
:103620001A6822F480321A601A6822F480221A6022
:1036300037E08A4B5B6813F4803FE7D0874B1B6809
:1036400013F4003F03D06368002B00F0BF812368B0
:1036500013F0020F75D0814B5B6813F00C0F5FD035
:103660007E4B5B6803F00C03082B54D02369002BBE
:1036700000F08A807A4B01221A60FFF7E1FA0546D2
:10368000764B1B6813F0020F75D1FFF7D9FA401B78
:103690000228F5D903209EE1704A136843F4803371
:1036A0001360636843B3FFF7CBFA05466B4B1B68A7
:1036B00013F4003FCBD1FFF7C3FA401B6428F5D9C0
:1036C000032088E1B3F5A02F09D0644B1A6822F4D7
:1036D00080321A601A6822F480221A60E1E703F14E
:1036E0008043A3F53C331A6842F480221A601A68BA
:1036F00042F480321A60D4E7FFF7A2FA0546574B2E
:103700001B6813F4003FA2D0FFF79AFA401B64280D
:10371000F5D903205FE1514B5B6813F4803FA5D1DD
:103720004E4B1B6813F0020F03D02369012B40F0AE
:103730004F814A4A136823F0F803616943EAC103E1
:103740001360236813F0080F33D0A369002B5CD0FB
:10375000434B0122C3F88024FFF772FA05463F4B22
:103760005B6A13F0020F21D1FFF76AFA401B0228AF
:10377000F5D903202FE1394A136823F0F803616972
:1037800043EAC1031360DCE7354B00221A60FFF700
:1037900057FA0546314B1B6813F0020FD1D0FFF7E3
:1037A0004FFA401B0228F5D9032014E10120FFF74E
:1037B00001FF236813F0040F00F09680274BDB69AC
:1037C00013F0805F34D1254BDA6942F08052DA6120
:1037D000DB6903F080530193019B0125214B1B689A
:1037E00013F4807F26D0E368012B3DD0002B53D10A
:1037F00003F1804303F504331A6A22F001021A62CE
:103800001A6A22F004021A6233E0154B0022C3F850
:103810008024FFF715FA0546104B5B6A13F0020F80
:10382000C7D0FFF70DFA401B0228F5D90320D2E0DC
:103830000025D3E70B4A136843F480731360FFF746
:10384000FFF90646074B1B6813F4807FCBD1FFF7C7
:10385000F7F9801B6428F5D90320BCE00010024072
:1038600000004242007000405F4A136A43F00103C7
:103870001362E36833B3FFF7E3F906465A4B1B6A5A
:1038800013F0020F2FD1FFF7DBF9801B41F28833D1
:103890009842F3D903209EE0052B09D0524B1A6AB7
:1038A00022F001021A621A6A22F004021A62E0E7A8
:1038B0004D4B1A6A42F004021A621A6A42F001027F
:1038C0001A62D6E7FFF7BCF90646474B1B6A13F0AE
:1038D000020F08D0FFF7B4F9801B41F288339842F9
:1038E000F3D9032077E0E5B9E369002B72D03E4AB3
:1038F000526802F00C02082A56D0022B17D03B4B1C
:1039000000221A66FFF79CF90446374B1B6813F038
:10391000007F47D0FFF794F9001B0228F5D9032058
:1039200059E0314AD36923F08053D361DCE72F4B50
:1039300000221A66FFF784F905462B4B1B6813F02B
:10394000007F06D0FFF77CF9401B0228F5D9032041
:1039500041E0236AB3F5803F1AD023494B6823F432
:103960007413226A606A024313434B601F4B0122A7
:103970001A66FFF765F904461B4B1B6813F0007FBE
:103980000ED1FFF75DF9001B0228F5D9032022E0D4
:10399000154A536823F40033A1680B435360DCE7F6
:1039A000002018E0002016E0012B16D00E4B5B68BB
:1039B00003F48031226A914211D103F47013626AD8
:1039C00093420ED1002006E001207047012002E062
:1039D000012000E0002002B070BD0120FBE70120C3
:1039E000F9E70120F7E700BF001002400000424263
:1039F0000F4B5B6803F00C02082A01D00D4870479A
:103A0000C3F383420C49885C13F4803F0BD0084B0E
:103A10005B68C3F34043094AD35C064A02FB00F0EB
:103A2000B0FBF3F07047064B03FB00F0704700BF9C
:103A30000010024000127A0008AB000818AB000822
:103A400000093D00002800F0A08070B50D46044636
:103A5000524B1B6803F007038B420BD24F4A13688B
:103A600023F007030B431360136803F007038B4233
:103A700040F08D80236813F0020F17D013F0040F6D
:103A800004D0474A536843F4E0635360236813F05B
:103A9000080F04D0424A536843F460535360404ACD
:103AA000536823F0F003A1680B435360236813F0BD
:103AB000010F31D06368012B20D0022B25D0384A6A
:103AC000126812F0020F64D035494A6822F00302EE
:103AD00013434B60FFF7B4F80646314B5B6803F0C5
:103AE0000C036268B3EB820F16D0FFF7A9F8801BB6
:103AF00041F288339842F0D9032045E0284A126801
:103B000012F4003FE0D101203EE0254A126812F095
:103B1000007FD9D1012037E0204B1B6803F0070359
:103B2000AB420AD91D4A136823F007032B431360E5
:103B3000136803F00703AB422DD1236813F0040F81
:103B400006D0174A536823F4E063E1680B435360DF
:103B5000236813F0080F07D0114A536823F4605309
:103B6000216943EAC1035360FFF742FF0C4B5B68D6
:103B7000C3F303130B4AD35CD8400B4B18600B4BB9
:103B80001868FFF719F8002070BD01207047012068
:103B9000FAE70120F8E70120F6E700BF0020024025
:103BA00000100240F0AA0008040000200C000020D1
:103BB000014B1868704700BF0400002008B5FFF7EC
:103BC000F7FF044B5B68C3F30223034AD35CD8407E
:103BD00008BD00BF0010024000AB0008014B186890
:103BE000704700BF1000002070B50D4E0D4D761BC4
:103BF000B61006D0002455F8043B01349847A6427D
:103C0000F9D1094E094D06F09DFA761BB61006D083
:103C1000002455F8043B01349847A642F9D170BD01
:103C200090AF000890AF000898AF000890AF000870
:103C3000830730B548D0541E002A3FD00346CAB28D
:103C400001E0013C3AD303F8012B9D07F9D1032C85
:103C50002DD9CDB245EA05250F2C45EA054536D9C3
:103C6000A4F1100222F00F0C03F1200EE6444FEAFB
:103C7000121C03F1100242E9045542E902551032C8
:103C80007245F8D10CF1010214F00C0F03EB021293
:103C900004F00F0C13D0ACF1040323F0030304333E
:103CA000134442F8045B9342FBD10CF003042CB1A3
:103CB000CAB21C4403F8012B9C42FBD130BD6446C0
:103CC0001346002CF4D1F9E703461446BFE71A4621
:103CD000A446E0E78C4630B504466FF00045134635
:103CE000084A9BB01068084A6946039262460595E7
:103CF00002950094049400F037F80022009B1A709B
:103D00001BB030BD100000200802FFFF024B13B1B2
:103D1000024800F005B87047000000002D3D000883
:103D2000002301461A46184601F070BD38B5084B0D
:103D3000084D5B1B9C1007D0043B1D44013C55F80B
:103D400004399847002CF9D1BDE8384006F000BA94
:103D50009CAF000898AF0008704700BF704700BFD5
:103D6000704700BF704700BF2DE9F04FD5B00C463B
:103D70000C9191460E930A9002F0DCFE03681846FF
:103D8000179303F0C9FDA3891690190603D523697B
:103D9000002B00F08F8700242BAB224698464D461F
:103DA000CDE929442893129400230024CDE914344A
:103DB0002B78CDE91922CDE91B2218920892002B0D
:103DC00000F0CE81AA4604E01AF8013F002B00F073
:103DD0000981252BF8D1BAEB050640F007819AF846
:103DE0000030002B00F0BC8100234FF0FF324FF079
:103DF0002B0920241F469AF8016007920AF1010A54
:103E00008DF8833009930AF1010AA6F120035A2B99
:103E100000F22081DFE813F0CA021E011E01C50274
:103E20001E011E011E01A3021E011E016A00F302F3
:103E30001E014702D9021E01D4025B005B005B0039
:103E40005B005B005B005B005B005B001E011E0112
:103E50001E011E011E011E011E01B0011E010B02EA
:103E60007A00B001B001B0011E011E011E011E0149
:103E70009E021E011E01B6001E011E011E01190236
:103E80001E014C021E011E013F071E011E011E01E4
:103E90001E011E011E011E011E01B0011E010B02AA
:103EA0007C00B001B001B00191027C0075001E01E0
:103EB00084021E017002B8005E0275001E01190224
:103EC00072001C071E011E011F071E017200002246
:103ED000A6F130031AF8016B02EB820203EB4202F7
:103EE000A6F13003092BF5D909928EE70E9B53F802
:103EF000042B002A09920E93C0F2D2819AF8006036
:103F000081E79AF8006047F020077CE747F0100748
:103F1000BA060E9B40F17D81073323F007031A4652
:103F20005B6852F8084B99460E92002BC0F27F85D1
:103F3000079B013301F0398054EA090327F0800B15
:103F400000F005850A2C79F1000380F093870123A6
:103F50005F4630348DF84F410B930DF24F15079AA1
:103F60000B9900238A42B8BF0A4606929DF8832027
:103F70000D930F9313931093002A7CD0069B01336B
:103F8000069378E047F0100717F0200900F032811F
:103F90000E9B073323F00703D3F8049053F8084B24
:103FA0000E93002327F4806B00228DF88320079A5C
:103FB000511C00F02A8254EA09012BF0800740F0DE
:103FC0002382002A41F02B80002B40F0C5841BF097
:103FD00001030B9300F0548530230DF24F158DF83B
:103FE0004F31BCE7BAEB050600F0BA802A9BC8E95E
:103FF000005633442A93299B0133072B299305DC70
:1040000008F10808089B33440893E8E60C990A98DD
:1040100028AA03F0E3FC80B90DF1AC08F2E70C9993
:104020000A9828AA03F0DAFC002800F08A800D9B89
:104030001BB10D990A9802F07DFC0C9B9B8913F033
:10404000400F089B18BF4FF0FF330893089855B0F6
:10405000BDE8F08F002E00F08380012300228DF850
:10406000EC6006933BAD8DF883200B930D92079285
:104070000F921392109217F0020302D006990231A8
:10408000069117F0840B07D109990698A1EB000956
:10409000B9F1000F00F336832A9C82B10122C8F8DF
:1040A0000420299A013401320DF18301072A2A9450
:1040B0002992C8F8001000F3698308F108087BB161
:1040C0000223C8F80430299B0234013321AA072BAC
:1040D0002A942993C8F8002000F36C8308F108089B
:1040E000BBF1800F00F02E82079B0B9AA3EB020B13
:1040F000BBF1000F00F37182FB0500F1C5810B9B42
:10410000C8F800501C44C8F80430299B2A94013395
:10411000072B299300F3EA8208F108087B0705D5ED
:10412000099B069A9D1A002D00F35083DDE90832A1
:1041300006998A42ACBF9B185B180893002C7FF449
:104140006EAF002329930D9B1BB10D990A9802F0C5
:10415000F1FB55460DF1AC082B78002B7FF432AE05
:104160002A9B002B3FF469AF0C9C0A98214628AA91
:1041700003F034FCA38962E70E9B073323F00702A8
:10418000F2E80234CDE91434DDE9143424F00044BB
:10419000994618460E9221464FF0FF32B64BFCF777
:1041A0009DFF002840F09684484621464FF0FF329C
:1041B000B14BFCF705FC002840F08C84DDE91401CC
:1041C00000220023FCF7F2FB002840F0A6879DF8B0
:1041D000832000210320A94DA94B27F080070D91D2
:1041E0000690472EC8BF1D4607910B900F91139163
:1041F0001091C1E617F0100340F0628417F04002FE
:1042000000F07B870E9A994652F8044B0E92A4B2A6
:10421000C7E653F8044B0E93FB0600F141847D067C
:1042200040F13B8444F3C0394B4624B27DE6012083
:1042300000220E9B069053F8041B3BAD8DF88320A3
:104240008DF8EC100E930B9010E74FF000090E9CC8
:10425000079B54F8045B8DF88390002D00F0EE86E8
:104260005A1C00F060851A464946284602F012FFA3
:104270000D90002801F09E800D9B9DF883205B1B14
:104280000B9323EAE373CDF81C900E940693CDF8BC
:104290003490CDF83C90CDF84C90CDF840906BE642
:1042A000099B5B4209939AF8006047F00407AAE56E
:1042B00047F0100B1BF0200900F0AA830E9B073378
:1042C00023F007031A4652F8084BD3F804900E92D5
:1042D000012369E6302278260E9B8DF8842053F85E
:1042E000044B684A0E934FF00009022347F0020B7B
:1042F0008DF88560189257E6BD0600F1D683FC065E
:1043000000F19386780600F15D87B90540F18D864E
:104310000E9B089953F8042B554611700E931BE71A
:104320009AF800606C2E03BF9AF8016047F02007EE
:104330000AF1010A47F0100765E59AF80060682E57
:1043400003BF9AF8016047F400770AF1010A47F0C9
:10435000400758E59AF8006047F0080753E50A9EC1
:10436000304602F0E7FB436818461B9303F0D4FA8B
:10437000034630461C931E4602F0DCFB836819930B
:10438000002E3FF4BBAD199B002B3FF4B7AD199B3A
:104390001B78002B3FF4B2AD9AF8006047F48067B9
:1043A00031E59AF8006047F001072CE59DF883306D
:1043B000002B7FF4A3AD9AF800608DF8834022E5CE
:1043C0009AF8006047F080071DE5524612F8016B2D
:1043D0002A2E01F0EB81A6F13003092B924698BFFB
:1043E000002201F203801AF8016B02EB820203EB58
:1043F0004202A6F13003092BF5D9079205E59AF898
:1044000000608DF88390FEE4BB46012B3FF49AAD2B
:10441000022B54AD12D1189A04F00F03D35C240977
:1044200044EA09744FEA191905F8013D54EA0903F1
:10443000F2D154AB5B1B5F460B9390E504F007038E
:10444000E40844EA49744FEAD909303354EA0901CF
:104450002A4605F8013DF1D11BF0010FE9D0302BC0
:10446000E7D03023023A05F8013C54AB9B1A5F4673
:1044700015460B9373E500BFFFFFEF7F20AB0008ED
:1044800024AB000830AB0008652E40F3E980DDE97D
:10449000140100220023FCF77FFA002800F0D281EB
:1044A0000123C8F80430299BBF4A01330134072B8C
:1044B0002A942993C8F8002000F37A8508F10808A7
:1044C000229B129A934280F2D782169B179A1C4421
:1044D000C8E90023299B2A940133072B299300F371
:1044E000DD8308F10808129B5D1E002D7FF716AED4
:1044F000102D41F34181DFF8B4922246494610263F
:10450000B946299B0F46DDF828B00C9C05E008F160
:104510000808103D102D40F3588501331032072B49
:10452000C8E90076CDE92932F1DD2146584628AAAE
:1045300003F054FA00287FF47AADDDE929320DF159
:10454000AC08E6E7099B069AA3EB020BBBF1000F50
:104550007FF7CAADBBF1100F41F30580DFF84C9235
:1045600041462046A8464C461023299A0C9DDDF86A
:10457000289006E0ABF1100BBBF1100F01F1080120
:1045800019DD01321030072AC1E90043CDE92920A5
:10459000F0DD2946484628AA03F020FA00287FF4D7
:1045A00046ADDDE92920ABF1100BBBF1100F4FF048
:1045B00010032BA9E5DC4546A14688460446013296
:1045C0005C44072ACDE92924C8F80090C8F804B053
:1045D00000F3188508F1080886E5BBF1100F40F3D9
:1045E0009785DFF8C89141462046A8464C461023DF
:1045F000299A0C9DDDF8289006E0ABF1100BBBF179
:10460000100F01F1080119DD01321030072AC1E94C
:104610000043CDE92920F0DD2946484628AA03F0C9
:10462000DDF900287FF403ADDDE92920ABF1100BA3
:10463000BBF1100F4FF010032BA9E5DC4546A14656
:104640008846044601325C44072ACDE92924C8F88B
:104650000090C8F804B000F3CE8108F108084BE5DB
:10466000129B012B40F37E810123299E01341E44BD
:10467000072EC8F800502A94C8F80430299600F391
:10468000E18108F10808169B0136179A1C44072E91
:10469000C8E90023CDE9296400F3E18108F10808A5
:1046A0000022DDE914010023FCF776F9002840F030
:1046B0007681129B0136013B01351C44072EC8F858
:1046C00000502996C8F804302A9400F35B8108F161
:1046D00008081A9B01361C44C8F80430072E24AB86
:1046E000CDE92964C8F800307FF716AD0C990A9817
:1046F00028AA03F073F900287FF499AC2A9C0DF1E5
:10470000AC080BE5B9F1100F40F35086DDE9292123
:104710004046CDE91D36B84610244F460C9EA946AA
:104720000A9D04E0103F102F00F1080016DD013251
:104730001F4B1031072AC0E90034CDE92921F1DDF2
:104740003146284628AA03F049F900287FF46FACC7
:10475000DDE92921103F102F2BA8E8DC4D46DDE9CB
:104760001D36B9464746804609EB0104013210491F
:10477000072ACDE92924C8F80490C8F8001000F3EE
:10478000C3839DF8832008F1080886E40C990A98F1
:1047900028AA1D9303F022F900287FF448AC2A9C34
:1047A0001D9B0DF1AC088AE460AB000874AB0008F7
:1047B00064AB00080C990A9828AA03F00FF90028A6
:1047C0007FF435AC2A9C0DF1AC0889E4102D40F340
:1047D000C4861026299B0A9FDDF8309004E0103D26
:1047E000102D08F1080817DD0133B84A1034072BE3
:1047F000C8E90026CDE92934F1DD4946384628AA22
:1048000003F0ECF800287FF412ACDDE92934103D08
:10481000102D0DF1AC08E7DC0133AC4A2C44072B1A
:10482000CDE92934C8F80450C8F800207FF77EACE1
:104830000C990A9828AA03F0D1F800287FF4F7AB66
:104840002A9C73E42299002940F36F83DDF840909D
:10485000129B9945A8BF9946B9F1000F0BDD299B22
:104860004C440133072BC8E900592A94299300F3DB
:104870001D8508F10808109EB9F1000FA8BFA6EB2E
:104880000906002E00F32582DDF840B07805AB4420
:1048900000F15F82229B129A934202DBF90740F1FA
:1048A0007684169A17991444C8E90012299A2A9412
:1048B0000132072A299200F3138508F10808129A99
:1048C000AE18A6EB0B06D51AAE42A8BF2E46002E98
:1048D0000DDD299B34440133072BC8F800B0C8F81C
:1048E00004602A94299300F3718508F10808002ECA
:1048F000A8BFAD1B002D7FF711AC102D40F33C87F6
:10490000DFF8CC91224649461026B946299B0F462E
:10491000DDF828B00C9C05E008F10808103D102DCA
:1049200040F3538301331032072BC8E90076CDE9F9
:104930002932F1DD2146584628AA03F04FF8002815
:104940007FF475ABDDE929320DF1AC08E6E7079B92
:10495000002B7FF4FCAA5F46002354AD07930B9312
:10496000FFF7FDBAFA073FF57FAE0123299E013418
:104970001E44072EC8F800502A94C8F8043029961F
:104980007FF7A5AE0C990A9828AA03F027F800280B
:104990007FF44DABDDE929640DF1AC0899E6129B7B
:1049A0005D1E002D7FF795AE102D40F3DF86224669
:1049B00007974FF0100BDFF818910A9C0C9F05E049
:1049C00008F10808103D102D40F37F8301361032A6
:1049D000072EC8E9009BCDE92962F1DD3946204662
:1049E00028AA02F0FBFF00287FF421ABDDE9296251
:1049F0000DF1AC08E6E70C990A9828AA02F0EEFF40
:104A000000287FF414AB2A9C0DF1AC08FFF774BBAF
:104A10001BF010030E9A3AD11BF0400133D052F82C
:104A2000044B99460E920123A4B2FFF7BDBA2D2381
:104A300064428DF88330BB464FF0010369EB4909AE
:104A4000FFF7B5BA0C990A9828AA02F0C7FF002808
:104A50007FF4EDAADDE929640DF1AC0813E60C99A9
:104A60000A9828AA02F0BAFF00287FF4E0AADDE93C
:104A700029640DF1AC0813E6FD077FF54FAB24E583
:104A800054ADFFF76CBA1BF4007940F08A8352F8FA
:104A9000044B01230E92FFF787BAB80500F19B8300
:104AA0004FEAE4794B46FFF740BA0E9B089853F85B
:104AB000041BC2175546C1E900020E93FFF74CBB19
:104AC0000E9B53F8044B0E93FFF76BBA64AB0008D0
:104AD00074AB0008DDE9140102460B46FCF7FEFA50
:104AE000002840F0E985612E00F07D85412E00F020
:104AF0008B84079B013300F08F8326F02003472B24
:104B0000069300F08F85DDE9141247F480730F934C
:104B10001346002BC0F2B0850B9300238B461D93E8
:104B20000D93069B462B00F0E983452B00F046854C
:104B300007990B9B01910221009126A9049123A9B9
:104B4000039122A95A460A98029100F03DFF069B64
:104B50000546472B40F03A8617F0010FB9460F9FE4
:104B600040F0FE84269B5B1B1293069B472B00F0B4
:104B70006E83069B462B00F0F083229B1093109BC4
:104B8000069A013B412A229300F0BB850021F2B234
:104B9000002B8DF89020B6BF2D222B22109B8DF874
:104BA0009120B8BFC3F10103092B40F39B850DF1A0
:104BB0009F0C6246B64F1C46104687FB0312D9175E
:104BC000C1EBA20101EB8102A3EB42023032632C64
:104BD00000F8012C0B4600F1FF32ECDC3033811E73
:104BE000DBB28C4502F8013C40F2F9850DF19201EF
:104BF00001E012F8013B944501F8013BF9D10DF1B8
:104C0000A1030DF192021B1A134424AA9B1A1A93B2
:104C1000129B1A9A012B1A440B9240F381850B9B2D
:104C2000169A13440B9300230B9A29F4806722EA07
:104C3000E27247F480770F930692139310931D9BB3
:104C4000002B40F02C839DF883200793FFF794B945
:104C5000BB46FFF72FBB8F4B189317F0200900F0CE
:104C6000F5800E9B073323F00703D3F8049053F825
:104C7000084B0E93F80709D554EA090306D03023F0
:104C80008DF8856047F002078DF88430022327F401
:104C9000806BFFF789B9804B1893DEE70C990A986F
:104CA00028AA02F09BFE00287FF4C1A92A9C0DF1DE
:104CB000AC0818E440210A9801F040FF0C9B1860F2
:104CC0001861002800F0978540230C9A5361FFF784
:104CD00062B8102E40F37685DFF8C0914246484610
:104CE0002146A846B9464FF0100B0746299B0A9C5F
:104CF0000C9D04E00832103E102E40F31382013365
:104D00001031072BC2E9007BCDE92931F2DD2946BC
:104D1000204628AA02F062FE00287FF488A9DDE977
:104D200029312BAAE7E72846CDF81C900E9402F013
:104D3000F3FD20EAE0739DF883200B90CDF83490CA
:104D4000CDF83C90CDF84C90CDF840900693FFF70D
:104D500013B9129B4246DDF84C80EB185E46079370
:104D6000CDF82CA010972146199FDDF87090DDF842
:104D700028A0DDF830B00F9B1395B8F1000F2ED0AE
:104D800083BB013F08F1FF381B9B4944C2E900394E
:104D9000299B2A910133072B299360DC0832079B5A
:104DA00038789B1B8342A8BF0346002B1C460BDDB3
:104DB0002998194401300728C2E900632A912990F3
:104DC00000F3148138780832002CB4BF0546051B67
:104DD000002D0BDC06440F9BB8F1000FD0D1002B47
:104DE00000F026820F9B013B0F93CDE7102D40F37F
:104DF0009D841024299804E0103D102D02F1080232
:104E000016DD0130254B10310728C2E90034CDE909
:104E10002901F1DD5946504628AA02F0DFFD00289D
:104E20007FF405A9DDE92901103D102D2BAAE8DC4E
:104E300001301A4B29440728CDE929015560136038
:104E400000F34182387808320644C4E717F01003B3
:104E500000F0A0800E9B53F8044B0E930AE75946CE
:104E6000504628AA02F0BAFD00287FF4E0A82A994B
:104E70002BAA94E700230BF480620696CDF82CA0B1
:104E8000CDF8348092461E46DDF8648054AF14E0BD
:104E90006766666630AB000844AB000874AB000878
:104EA0000023204649460A22FCF72EF90A2C79F104
:104EB00000031BD3044689462F4620460A220023BE
:104EC0004946FCF721F930327D1E013607F8012CE6
:104ED000BAF1000FE4D098F800309E42E0D1FF2EE6
:104EE000DED00A2C79F1000380F0308154AB5B1BDB
:104EF000DDF82CA0CDF8648012965F46069EDDF8A2
:104F000034800B93FFF72BB80C990A9828AA1D93AD
:104F100002F064FD00287FF48AA89DF883202A9C73
:104F20001D9B0DF1AC08FFF7B8B80123C8F8043099
:104F3000299BBC4A01330134072B2A942993C8F8D2
:104F4000002000F3178108F10808002940F086804E
:104F5000129A07F0010313433FF4E0A8169B179938
:104F60001A19C8E90013299B2A920133072B2993A8
:104F700000F3378108F10808129901338C18072BC8
:104F8000CDE92934C8F80050C8F804107FF7C4A848
:104F9000FFF7ACBB17F0400200F0A5800E9A9946CF
:104FA00052F8044B0E92A4B264E6BB46FEF7CABFA9
:104FB0000C990A9828AA02F011FD00287FF437A85E
:104FC0002A9C0DF1AC08FFF77BBA14463A464F46CF
:104FD000914601332C44072BC8F80090C8F80450C0
:104FE000CDE929347FF798A8FFF780BB5946504692
:104FF00028AA02F0F3FC00287FF419A838782A992F
:105000002BAAE1E60C990A9828AA02F0E7FC0028EE
:105010007FF40DA82A9C0DF1AC08FFF765B8012BB1
:10502000BB467FF4F5A9FEF792BF0E9B089953F893
:10503000042B554611600E93FFF78EB8062B2946B8
:1050400028BF06232A4607950D950693764D0E94A4
:105050000B930F9113911091FEF78EBF169B17982B
:105060001A19C8E90003299B2A920133072B2993B7
:1050700000F3B78008F108080029BFF67DAF4E4263
:10508000103180F2A98341461024A846DFF89C9194
:10509000DDF828B00C9D04E00831103E102E40F3DE
:1050A000A78201331032072BC1E90094CDE92932E0
:1050B000F2DD2946584628AA02F090FC00287EF42A
:1050C000B6AFDDE929322BA9E7E71446079F013681
:1050D0002C44072ECDE92964C8F80090C8F8045084
:1050E0007FF7F5AA4EE417F400790E9B66D053F8CB
:1050F000044B91460E93E4B2BCE517F400790E9B85
:1051000057D053F8044B91460E93E4B2FEF749BFD3
:10511000299ADFF81891FFF795BA2D228DF8832090
:10512000FFF757B8454690463A460C464F469146DB
:1051300001333444072BCDE92934C8F80090C8F86E
:1051400004605CDC08F10808FFF79EBB1C9B1B9900
:10515000ED1A1A46284602F00DFC98F801300BB102
:1051600008F10108204649460A2200230026FBF7E1
:10517000CBFF9FE60C990A9828AA02F02FFC002882
:105180007EF455AF22992A9C0DF1AC08DDE6129A07
:10519000AE18A6EB0B06D51AAE42A8BF2E46FFF7F7
:1051A000A6BB52F8044B894601230E92E4B2FEF7E7
:1051B000FBBE53F8044B0E93FEF7F3BE53F8044BBB
:1051C0000E9357E50E9B089953F8042B5546118012
:1051D0000E93FEF7C1BF44F3C0194B4664B2FEF70D
:1051E000A4BE0C990A9828AA02F0F8FB00287EF4C5
:1051F0001EAFDDE9293222990DF1AC083CE70C998C
:105200000A9828AA02F0EAFB00287EF410AF2A9C34
:105210000DF1AC08FFF738BB0623079326F02003F7
:10522000069370E460AB000858AB000874AB00084C
:10523000DDE91235EB189E42B346199790460C46AD
:1052400028BF9B46DDF82CA0109FFFF723BB229BB5
:10525000DA1C109302DB079A934204DD023E26F02B
:10526000200306938BE4109B129A9342C0F2C280F3
:1052700019F0010F00F01D82169A13440B9319F4D4
:10528000806F00F01482109B6726002B76DC0B9B4E
:1052900023EAE373069300230F931393CFE42D22A5
:1052A00000238DF883200793FEF768BE0C990A98B7
:1052B00028AA02F093FB00287EF4B9AE2A9C0DF1D7
:1052C000AC08FFF7D8BA5946504628AA02F086FB28
:1052D00000287EF4ACAE38782A992BAA06447AE5E9
:1052E0000C990A9828AA02F079FB00287EF49FAE58
:1052F000229B2A9C0DF1AC08FFF7E1BA07990B9BA2
:1053000001910321009126A9049123A9039122A9C7
:105310005A460A98029100F057FB03780546302B55
:1053200000F01682229B079AB94613440F9FEC188F
:105330005846002200230B99FBF72EFB08B12346A9
:1053400011E4269BA342BFF40EAC30215A1C2692D6
:105350001970269B9C42F9D805E4229A002A1092E3
:1053600040F30E82079909F001030B4340F07E8160
:105370006626109B0B9319F4806F88D019990B78CF
:10538000FF2B00F025820024109A204604E0013013
:105390000131FF2B00F05981934280F25681D21ADD
:1053A0004B78002BF3D10B780134F2E7DDE92921AA
:1053B000FFF7DAB9079B9DF883200E9406930B93B1
:1053C00007900F9013901090FEF7D6BD0C990A9895
:1053D00028AA02F003FB00287EF429AE229D129B2E
:1053E0002A9C0DF1AC085D1BFFF781BA00230793DF
:1053F000FEF70BBD129B169A9A18109B0B92002B6E
:1054000040F385816726B6E730238DF88430582332
:105410008DF88530079B47F00204632B00F3C480AE
:1054200000233BAD0D9347F481730F93DDE9141214
:105430001346002B2746C0F284800B9300238B4633
:105440001D9326F020030693612E00F01881412E53
:105450007FF467AB22AA58460B9902F013FA002298
:105460004FF07F53FBF730F802460B46CDE910238F
:1054700000220023FBF790FA08B101232293AD4BE1
:105480000B93079BCDE912A6CDE91E78DDE91067E5
:10549000AB46DDF82CA003F1FF39109506E00022A1
:1054A000002309F1FF39FBF777FAE8B90022A24B94
:1054B00030463946FBF708F80F460646FBF79EFADA
:1054C0000446FAF797FF0B46024639463046FAF78C
:1054D00043FE1AF80430B9F1FF3FD8464D46064660
:1054E0000F460BF8013BDAD1304639460022934B88
:1054F000A946DDF848A0109DCDF84880CDE91001FF
:10550000DDF87C80139E1E9FFBF76EFA80BBDDE901
:1055100010010022894BFBF73FFA08B1E10727D4BD
:105520004B46002B06DB302201335B440BF8012B8A
:105530005B45FBD1ABEB0503B94612930F9FFFF719
:1055400014BB26F0200306932D22DDE914349B467C
:1055500004F100431D920B9376E7299BFFF75CB99A
:10556000079BEC18E4E6299ADFF8D491FFF727B8F7
:10557000129B26930B9B1BF8012CD97B5B468A421E
:1055800009D1302003F8010C269B5A1E269213F8ED
:10559000012C9142F6D0392A0BBF0B9A0132927A34
:1055A000D2B203F8012CC5E70A98591C01F0C6FADB
:1055B0000546002800F017810D9034E70221009184
:1055C00007995A464C1C26A9049123A9039122A9A4
:1055D0000B9B0A980194029100F0F6F90546B94632
:1055E0002C440F9FA4E630238DF8843078230FE7F6
:1055F0004546884601333244072BCDE92932C8F8A5
:105600000090C8F804607FF7B5AC0C990A9828AAF6
:1056100002F0E4F900287EF40AADDDE929320DF14B
:10562000AC08A9E4079B002B08BF0123079347F4AC
:1056300080730F93159B002BC0F2B680DDF850B03D
:105640000D900B931D90FFF773BA19911092139060
:105650000F940F9A139B1C9913440B9A01FB03237D
:105660000B9323EAE3730693FFF7E9BA169B6626CA
:10567000D31819440B917EE600230D9364E722AA08
:1056800058460B9902F0FEF800224FF07F53FAF7CC
:105690001BFF02460B46CDE9102300220023FBF737
:1056A0007BF908B101232293264B0B93E9E6672689
:1056B000EDE5109B0B93E2E5159B0320002BB8BF93
:1056C0002D224FF00003A8BF9DF8832019460D93AB
:1056D0001D4D1E4BB8BF8DF8832027F08007069024
:1056E000FEF77FBD002944D130228DF892200DF1C4
:1056F0009302303302F8013B24ABD31A1A93FFF71D
:1057000087BA06F10F020121D2B2FFF741BAC3F105
:1057100001031A4422EAE27367260B920693BAE564
:1057200019F0010F3FF47FAAFFF779BA2998FFF724
:105730007FBB00BF44AB0008000030400000E03FEA
:1057400074AB000830AB000828AB00082CAB000895
:105750005846002200230B99FBF71EF900287FF41E
:10576000E1AD079BC3F101032293DCE5DFF89890DC
:10577000ADE40DF19202BCE7299BDFF88C9028E4A0
:10578000079A09F0010959EA020304D101236626A8
:1057900006930B937FE5169B662601331A4422EA93
:1057A000E2730B92069376E50D90CDE60E9B9AF888
:1057B0000160924653F8042B0E9342EAE27307937A
:1057C000FEF721BB299BDFF84090B1E4079C06E778
:1057D00000230F9313933CE7DFF82C900AE7022392
:1057E0001A93FFF715BA0C998B8943F040021346C0
:1057F0008A81FEF724BC4FF0FF320C2308920A9AEC
:105800001360FEF723BC00BF74AB00082DE9F0471E
:10581000DFF87CA00646DAF8000098460F4691466D
:10582000FEF79EFA1B4B1B68D3F8484124B365680A
:105830001F2D26DC5EB96B1C0235DAF800006360B0
:1058400044F82570FEF78EFA0020BDE8F0870123AA
:1058500004EB8501C1F88890D4F88821AB401A4345
:10586000022EC4F88821C1F80881E4D1D4F88C2133
:105870001343C4F88C31DEE703F5A674C3F848413E
:10588000D5E7DAF80000FEF76DFA4FF0FF30DCE7FD
:10589000400400201CAB00082DE9F04F03690C699F
:1058A00085B0A342C0F28980013C01F11405A30038
:1058B00000F11408019355F8243058F824200133DE
:1058C0008A469A4208EB84018146B2FBF3F605EB67
:1058D000840702913AD30021AE4640460A46A346C9
:1058E00003955EF8045B0468ABB206FB03132D0C52
:1058F000190C06FB05119BB2D21A1FFA84FC9444C2
:105900008AB2C2EB144202EB2C421FFA8CFC4CEA26
:105910000243774540F8043B4FEA11414FEA2242E7
:10592000DFD2019B5C4658F80330039D73B9029B9C
:10593000043B984504D307E0984504F1FF3403D2B3
:1059400053F80429002AF7D0C9F8104051464846B8
:1059500001F070FE00282CDB40460023013655F88C
:10596000041BD0F800C08AB29A1A1FFA8CFE0B0CE6
:105970007244C3EB1C4303EB224392B242EA03425C
:10598000AF4240F8042B4FEA2343E8D258F82420D2
:1059900008EB84036AB9043B984504D307E09845B3
:1059A00004F1FF3403D253F80429002AF7D0C9F8D0
:1059B0001040304605B0BDE8F08F002005B0BDE8CE
:1059C000F08F00BF000000002DE9F04F904699468F
:1059D000016C99B00446CDE90489259D41B10123AC
:1059E000426C93408B604A6001F0CEFB002323643D
:1059F000B9F1000AB4BF012300232B60764BBCBF72
:105A00002AF0004ACDF814A033EA0A0300F0AA8075
:105A1000DDE904231046194600220023CDE90A01DE
:105A2000FAF7BAFF074670B10123249A1360269B48
:105A3000002B00F0E68269481860431E0393039828
:105A400019B0BDE8F08F16AB019317AB0093204659
:105A5000DDE90A2301F0B4FE5FEA1A56054640F07C
:105A60009780DDE916763E4406F23240202840F366
:105A7000B783C0F140000AFA00FA06F2124028FA91
:105A800000F04AEA0000FAF7A5FC0123013E0F935B
:105A9000A1F1F8710022524BFAF75EFB48A3D3E95B
:105AA0000023FAF711FD48A3D3E90023FAF756FBC8
:105AB000804630468946FAF79DFC45A3D3E900238A
:105AC000FAF702FD02460B4640464946FAF746FB06
:105AD00080468946FAF792FF00228346002340461B
