:020000040800F2
:10000000002800205D07000841070008430700089A
:1000100045070008470700084907000800000000DE
:100020000000000000000000000000004B07000876
:100030004D070008000000004F07000851070008A6
:10004000A5070008A5070008A5070008A5070008E0
:10005000A5070008A5070008A5070008A5070008D0
:10006000A5070008A5070008A5070008A5070008C0
:10007000A5070008A5070008A5070008A5070008B0
:10008000A5070008A5070008A5070008A5070008A0
:10009000A5070008A5070008A5070008A507000890
:1000A000A5070008A5070008A5070008A507000880
:1000B000A5070008A507000800000000A507000824
:1000C000A50700080000000000000000A5070008C8
:1000D00000000000A5070008A507000800000000B8
:1000E000A5070008A5070008A507000800000000F4
:1000F0000000000000000000000000000000000000
:0C01000000000000000000005FF808F1A3
:10010C0010B5054C237833B9044B13B10448AFF345
:10011C0000800123237010BD3C040020000000006F
:10012C009819000808B5034B1BB103490348AFF3FA
:10013C00008008BD00000000400400209819000851
:10014C0000B585B000238DF80C308DF80D000A2316
:10015C000093022303AA7821024800F061FF05B046
:10016C005DF804FB5808002080B582B002AF01F1A5
:10017C00080303F4FC73ADEB030D02AA40238DF8C6
:10018C0008304FF0000C07E00CF1010E10F80CC019
:10019C0002F80EC05FFA8EFC8C45F5D30A2300934F
:1001AC004B1C7821024800F03BFFBD4680BD00BFD0
:1001BC005808002010B50C4640F0B000FFF7C0FF07
:1001CC00200940F01000FFF7BBFF04F00F00FFF711
:1001DC00B7FF10BD10B500240BE000212046FFF73F
:1001EC00E9FF8021044800EBC410FFF7BDFF013488
:1001FC00E4B2072CF1D910BD5804002000200BE00C
:10020C00084A02EBC0120021D1540133DBB213F0C7
:10021C00800FF5D00130C0B2072801D80023F6E7D3
:10022C00704700BF5804002008B5AE20FFF788FFC8
:10023C00D520FFF785FF8020FFF782FFA820FFF76E
:10024C007FFF3F20FFF77CFFD320FFF779FF0020D3
:10025C00FFF776FF4020FFF773FFA120FFF770FF39
:10026C00C820FFF76DFFDA20FFF76AFF1220FFF7B7
:10027C0067FF8120FFF764FFCF20FFF761FFD920D4
:10028C00FFF75EFFF120FFF75BFFDB20FFF758FF66
:10029C003020FFF755FFA420FFF752FFA620FFF7F1
:1002AC004FFF8D20FFF74CFF1420FFF749FFAF20C5
:1002BC00FFF746FFFFF7A2FFFFF78CFF08BD00001A
:1002CC0010F0800F31D170B514461D463F292BD844
:1002DC001318802B02DDC0F18004E4B20E466B18BB
:1002EC00402B1CDDC1F14005EDB218E04FEAD10EF8
:1002FC0001F00702012303FA02F20C4B03EBCE1EB2
:10030C001EF80C3023EA02030EF80C300CF1010C31
:10031C005FFA8CFC23189C45E8DB0131C9B2AB19A0
:10032C00994201DA8446F5E770BD70475804002005
:10033C002DE9F04F83B001930C9F10F0800F04D186
:10034C0080460D4616463F2902D903B0BDE8F08F12
:10035C00FFF7B6FF4FF0000B33E00133DBB2B342D3
:10036C002BD208EB03017F2927DC0AEBD502072AE5
:10037C00EBDC0AFB063417F804E005F0070C0EFA68
:10038C000CF9154800EBC21010F801E04EEA090E0A
:10039C0000F801E0062AE0DC02F1010E385DCCF138
:1003AC00080C40FA0CF00C4A02EBCE1212F801C009
:1003BC004CEA000C02F801C0CFE70BF1010B5FFA1D
:1003CC008BFB019B013B05D4DA46BBEBE30FBCDC9A
:1003DC000023C4E70733F7E75804002000B583B0C7
:1003EC00082B04D0062B0CD003B05DF804FB203A8C
:1003FC000A4B03EB0212009210230822FFF798FF1E
:10040C00F2E7203A02EB4202054B03EB4202009268
:10041C0008230622FFF78CFFE6E700BFEC1B000861
:10042C00B01900082DE9F04180460F4616461D46CE
:10043C0000240AE005FB04F0C0B240442B463946C8
:10044C00C0B2FFF7CBFF0134E4B2325D002AF1D128
:10045C00BDE8F081F0B589B00024049405940694AD
:10046C0007942B4B9A6942F010029A619A6902F038
:10047C0010020092009A9A6942F020029A619A69DD
:10048C0002F020020192019A9A6942F004029A61E8
:10049C009A6902F004020292029A9A6942F00802E6
:1004AC009A619B6903F008030393039B194F22463F
:1004BC001E21384600F03EFB174D01221021284624
:1004CC0000F038FB22462021284600F033FB1E2387
:1004DC0004930126059606940224079404A9384631
:1004EC0000F018FA102304930596069607940DEB6A
:1004FC000301284600F00EFA202304930596069477
:10050C00079404A9284600F005FA09B0F0BD00BF15
:10051C000010024000080140000C014072B6FEE7DA
:10052C0008B50A480A4B03600A4B436000238360FA
:10053C00C3604FF48042026143618361C361036213
:10054C0000F090FC00B908BDFFF7E8FF5808002048
:10055C0000540040A086010000B591B02822002173
:10056C0006A801F051F9002301930293039304931D
:10057C000593012206924FF4803307930A920222CC
:10058C000D920E934FF4E0130F9306A800F01AFE91
:10059C0080B90F23019302210291002303934FF49E
:1005AC0080620492059301A801F03EF820B911B0C5
:1005BC005DF804FBFFF7B2FFFFF7B0FF08B500F0E2
:1005CC0013F9FFF7C9FFFFF745FFFFF7A9FF2C4C05
:1005DC0001220221204600F0ADFA0122042120461E
:1005EC0000F0A8FA01220821204600F0A3FA01220B
:1005FC001021204600F09EFA4FF47A7000F018F9A2
:10060C0000220221204600F095FA00220421204607
:10061C0000F090FA00220821204600F08BFA00220C
:10062C001021204600F086FAFFF7FEFD0122022180
:10063C00204600F07FFA0823124A00210846FFF7F3
:10064C00F1FE01220421204600F074FA06E0013B81
:10065C000D4A13604FF47A7000F0EAF84FF47A7098
:10066C0000F0E6F8084B1B68002B03F00102B8BF42
:10067C005242012AEBD10133034A1360EAE700BF6F
:10068C0000080140DC2100080000002082B00E4B65
:10069C009A6942F001029A619A6902F00102009291
:1006AC00009ADA6942F08052DA61DB6903F0805318
:1006BC000193019B054A536823F0E06343F0806388
:1006CC00536002B0704700BF0010024000000140B0
:1006DC0010B586B00023029303930493059302682C
:1006EC00114B9A4201D006B010BD104CA36943F0D7
:1006FC000803A361A36903F008030093009BC023C4
:10070C000293122303930323059302A9084800F0D4
:10071C0001F9E36943F40013E361E36903F40013A3
:10072C000193019BDFE700BF005400400010024022
:10073C00000C0140FEE7FEE7FEE7FEE7FEE7704730
:10074C007047704708B500F061F808BD70470000AD
:10075C00FFF7FCFF0B480C490C4A002302E0D4586D
:10076C00C4500433C4188C42F9D3094A094C0023F1
:10077C0001E013600432A242FBD301F021F8FFF731
:10078C001DFF7047000000203C0400202C220008B4
:10079C003C040020B4080020FEE7000010B504461D
:1007AC000E4B18784FF47A73B3FBF0F30C4A1068C5
:1007BC00B0FBF3F000F09AF868B90F2C01D90120C6
:1007CC000AE0002221464FF0FF3000F057F8054BAD
:1007DC001C60002000E0012010BD00BF08000020BC
:1007EC00040000200C00002008B5074A136843F0F1
:1007FC0010031360032000F02FF80F20FFF7CEFF3B
:10080C00FFF744FF002008BD00200240034A116896
:10081C00034B1B780B441360704700BFAC080020DF
:10082C0008000020014B1868704700BFAC0800207E
:10083C0038B50446FFF7F6FF0546B4F1FF3F02D08A
:10084C00044B1B781C44FFF7EDFF401BA042FAD36E
:10085C0038BD00BF08000020074AD36823F4E063CA
:10086C001B041B0C000200F4E060034343F0BF6365
:10087C0043F40033D360704700ED00E000B5194B32
:10088C00DB68C3F30223C3F1070CBCF1040F28BFD0
:10089C004FF0040C03F1040EBEF1060F18D9033B04
:1008AC004FF0FF3E0EFA0CFC21EA0C0199400EFAB7
:1008BC0003F322EA0303194300280BDB0901C9B235
:1008CC0000F1604000F5614080F800135DF804FB16
:1008DC000023E5E700F00F000901C9B2024B1954DF
:1008EC00F4E700BF00ED00E014ED00E00138B0F1DA
:1008FC00807F0BD24FF0E0235861054AF02182F83B
:10090C0023100020986107221A617047012070475C
:10091C0000ED00E070B582B00024A4468BE07F4D62
:10092C00AA4210D007D97E4DAA420CD005F58035CD
:10093C00AA4208D015E0A5F58015AA4203D005F50A
:10094C007025AA4209D18A68002A00F0BF80012ACA
:10095C0000F0B7804361082403E0A5F58015AA4296
:10096C00F1D0BEF1FF0F00F2B3800646BEF1FF0FCF
:10097C0000F2B0804FEA8C0233680F25954023EAD1
:10098C00050304FA02F2134333604B6813F0805FE3
:10099C004FD0644B9A6942F001029A619B6903F053
:1009AC0001030193019B4FEA9C02951C5E4B53F88B
:1009BC0025600CF003039D000F23AB4026EA0306D1
:1009CC005A4B984200F08C8003F58063984200F0FB
:1009DC00898003F58063984200F080800323AB404C
:1009EC0033430232504D45F822304B6813F4801FCC
:1009FC007AD04F4A936843EA0E0393604B6813F422
:100A0C00001F77D04A4AD36843EA0E03D3604B6881
:100A1C0013F4003F74D0464A536843EA0E03536004
:100A2C004B6813F4803F71D0414A136843EA0E03BC
:100A3C0013600CF1010C0A6832FA0CF36CD0012330
:100A4C0003FA0CF302EA030E33EA0202F1D14A680C
:100A5C00122A3FF664AF122A83D801A555F822F06A
:100A6C0053090008B90A0008C30A0008D50A00088F
:100A7C006F0900086F0900086F0900086F0900086A
:100A8C006F0900086F0900086F0900086F0900085A
:100A9C006F0900086F0900086F0900086F0900084A
:100AAC006F090008BD0A0008C90A0008CC6858E79D
:100ABC00CC68043455E7CC68083452E7CC680C3465
:100ACC004FE7036108244CE700244AE7042448E775
:100ADC00061D4BE7ACF1080292004DE702237EE7BE
:100AEC0000237CE701237AE7114A936823EA0E037B
:100AFC00936083E70E4AD36823EA0E03D36086E73C
:100B0C000B4A536823EA0E03536089E7084A1368BB
:100B1C0023EA0E0313608CE702B070BD00002210B4
:100B2C00000031100010024000000140000801409C
:100B3C00000401400AB1016170470904016170476A
:100B4C0003685A6912F4806F01D1002070476FF46A
:100B5C0080625A6100230363202280F83D2080F8D4
:100B6C003E30026C42F00402026480F83C300120FA
:100B7C0070472DE9F04106460C46174698463BE077
:100B8C00FFF750FE069BC01A404502D8B8F1000F83
:100B9C0032D1012D18D033689B6924EA03039BB230
:100BAC00B3FA83F35B099F4226D1002333632022DF
:100BBC0086F83D2086F83E30326C42F020023264DA
:100BCC0086F83C30012027E033685B6924EA030394
:100BDC009BB2B3FA83F35B09E5E733685B6924EAFC
:100BEC00030C1FFA8CFCBCFA8CFC4FEA5C1C6745AE
:100BFC0011D1B8F1FF3FC3D1C4F30745012DECD09F
:100C0C0033689B6924EA030C1FFA8CFCBCFA8CFC3D
:100C1C004FEA5C1CEBE70020BDE8F0812DE9F843BE
:100C2C0005460E469046994653E01A6842F4007207
:100C3C001A602B686FF480625A6100232B632022A8
:100C4C0085F83D2085F83E302A6C42F004022A6477
:100C5C0085F83C3001204AE0FFF7E4FDA0EB0900E9
:100C6C00404502D8B8F1000F33D1012F17D02B68B3
:100C7C009B6926EA03039BB2003B18BF012343B3D5
:100C8C0000232B63202285F83D2085F83E302A6C0A
:100C9C0042F020022A6485F83C30012027E02B68C2
:100CAC005B6926EA03039BB2003B18BF0123E6E70E
:100CBC002B689C6926EA0404A4B2003C18BF0124EA
:100CCC00A4B12B685A6912F4806FAED1B8F1FF3F12
:100CDC00C2D1C6F30747012FEAD12B685C6926EA1B
:100CEC000404A4B2003C18BF0124E9E70020BDE8CD
:100CFC00F8830000F0B583B004460D4616461F4637
:100D0C00C36A082B0DD0012B0BD013F5803F08D0F4
:100D1C00036B122B0AD10268136843F480731360BF
:100D2C0004E02268136843F4807313600097334621
:100D3C0000224FF001112046FFF71BFF80B92369F9
:100D4C00B3F5804F16D1236805F0FE051D613B46B7
:100D5C00324613492046FFF761FFF8B903B0F0BDE6
:100D6C0023681B6813F4807F02D04FF40073236454
:100D7C000320F3E7EB11226803F0060343F0F003C2
:100D8C0013613B46324607492046FFF747FF18B927
:100D9C002368EDB21D61DAE70120DFE70120DDE712
:100DAC00020001000800010070B504460D4616460D
:100DBC0023685B6913F0800F21D12046FFF7C0FE3A
:100DCC00F8B9B5F1FF3FF3D0FFF72CFD801BA8421B
:100DDC0001D8002DECD123685B6913F0800FE7D1AB
:100DEC0000232363202284F83D2084F83E30226CBB
:100DFC0042F02002226484F83C30012000E0002004
:100E0C0070BD0120FCE770B504460D4616462368FC
:100E1C005B6913F0040F21D12046FFF791FEF8B95E
:100E2C00B5F1FF3FF3D0FFF7FDFC801BA84201D8C2
:100E3C00002DECD123685B6913F0040FE7D100237C
:100E4C002363202284F83D2084F83E30226C42F04B
:100E5C002002226484F83C30012000E0002070BDA8
:100E6C000120FCE7002800F0CC8070B5044690F817
:100E7C003D30002B77D0242384F83D302268136852
:100E8C0023F0010313602268136843F400431360DA
:100E9C002268136823F40043136000F081FC62683D
:100EAC005A4B9A4264D85A4B98428CBF0023012368
:100EBC00002B40F0A8805749A1FB00318B0C256812
:100ECC006A6822F03F0242EA91426A6021680A6A2B
:100EDC0022F03F0266684D4DAE424FD801331343AA
:100EEC000B622168CA6922F44F4222F0FF02666845
:100EFC00464B9E424CD8431E7600B3FBF6F30133AF
:100F0C0040F6FC70034278D0C3F30B031343CB6160
:100F1C0021680B6823F0C003E269206A0243134383
:100F2C000B6021688B6823F4034323F0FF032269D1
:100F3C00E068024313438B602168CB6823F0FF0306
:100F4C006269A06902431343CB602268136843F0C3
:100F5C000103136000202064202384F83D302063BB
:100F6C0084F83E0070BD80F83C30FFF7B1FB82E79F
:100F7C00294B98428CBF0023012399E74FF49675B7
:100F8C0005FB03F3254DA5FB03539B090133A6E792
:100F9C00A368BBB9451E06EB460CB5FBFCF5013549
:100FAC00C5F30B05B5FA85F56D0945BBC3B9013819
:100FBC0006EB4603B0FBF3F30133C3F30B0343F42B
:100FCC000043A3E7451E06EB860C0CEB8C0CB5FB23
:100FDC00FCF50135C5F30B05B5FA85F56D09E4E7AC
:100FEC00013806EB860303EB8303B0FBF3F3013309
:100FFC00C3F30B0343F4404388E7042386E7012340
:10100C0084E7012070470120ACE700BFA0860100F7
:10101C007F841E0083DE1B43FF083D00D34D62100E
:10102C002DE9F04385B004460F46914698460C9E38
:10103C00FFF7F8FB054694F83D00C0B2202804D019
:10104C000227384605B0BDE8F0830095192301222C
:10105C004F492046FFF78DFD002840F0928094F810
:10106C003C30012B00F08F80012384F83C30236846
:10107C001A6812F0010F03D11A6842F001021A60CB
:10108C002268136823F400631360212384F83D3035
:10109C00102384F83E3000232364C4F82490A4F871
:1010AC002A80638D23853B4BE3622B4632463946BF
:1010BC002046FFF71FFE0746002866D10023039346
:1010CC0023685A6903929B690393039B11E0236C79
:1010DC00042B01D00127B4E72268136843F4007392
:1010EC001360F7E72A4631462046FFF78CFE0028AE
:1010FC002ED1238D002B36D02A4631462046FFF7C1
:10110C0053FE0028E3D1626A236812781A61606A80
:10111C00431C6362618D89B2013989B26185238D6B
:10112C00013B9BB223852268516911F0040FD9D081
:10113C00002BD7D043781361636A01336362638DEC
:10114C009BB2013B9BB26385238D013B2385C9E791
:10115C00236C042B01D0012773E72268136843F436
:10116C0000731360F7E72268136843F4007313608D
:10117C00202384F83D30002384F83E3084F83C3042
:10118C005FE702275DE702275BE7012759E700BF0E
:10119C00020010000000FFFF82B0084B1B68084AD9
:1011AC00A2FB03235B0A00FB03F3019300BF019B2B
:1011BC005A1E0192002BF9D102B070470400002096
:1011CC00D34D6210002800F0F18170B582B0044656
:1011DC00036813F0010F2CD0994B5B6803F00C03E0
:1011EC00042B1DD0964B5B6803F00C03082B12D01C
:1011FC006368B3F5803F41D0002B55D103F1804398
:10120C0003F504331A6822F480321A601A6822F447
:10121C0080221A6037E08A4B5B6813F4803FE7D07A
:10122C00874B1B6813F4003F03D06368002B00F05E
:10123C00BF81236813F0020F75D0814B5B6813F0EC
:10124C000C0F5FD07E4B5B6803F00C03082B54D063
:10125C002369002B00F08A807A4B01221A60FFF779
:10126C00E1FA0546764B1B6813F0020F75D1FFF7B8
:10127C00D9FA401B0228F5D903209EE1704A136865
:10128C0043F480331360636843B3FFF7CBFA05462E
:10129C006B4B1B6813F4003FCBD1FFF7C3FA401B19
:1012AC006428F5D9032088E1B3F5A02F09D0644B4D
:1012BC001A6822F480321A601A6822F480221A60AA
:1012CC00E1E703F18043A3F53C331A6842F4802232
:1012DC001A601A6842F480321A60D4E7FFF7A2FA57
:1012EC000546574B1B6813F4003FA2D0FFF79AFA40
:1012FC00401B6428F5D903205FE1514B5B6813F464
:10130C00803FA5D14E4B1B6813F0020F03D023690D
:10131C00012B40F04F814A4A136823F0F8036169AE
:10132C0043EAC1031360236813F0080F33D0A36999
:10133C00002B5CD0434B0122C3F88024FFF772FAD8
:10134C0005463F4B5B6A13F0020F21D1FFF76AFA97
:10135C00401B0228F5D903202FE1394A136823F0EA
:10136C00F803616943EAC1031360DCE7354B0022E3
:10137C001A60FFF757FA0546314B1B6813F0020F42
:10138C00D1D0FFF74FFA401B0228F5D9032014E106
:10139C000120FFF701FF236813F0040F00F0968083
:1013AC00274BDB6913F0805F34D1254BDA6942F0AF
:1013BC008052DA61DB6903F080530193019B0125B4
:1013CC00214B1B6813F4807F26D0E368012B3DD0A2
:1013DC00002B53D103F1804303F504331A6A22F036
:1013EC0001021A621A6A22F004021A6233E0154BE7
:1013FC000022C3F88024FFF715FA0546104B5B6AF0
:10140C0013F0020FC7D0FFF70DFA401B0228F5D9D5
:10141C000320D2E00025D3E70B4A136843F4807312
:10142C001360FFF7FFF90646074B1B6813F4807F28
:10143C00CBD1FFF7F7F9801B6428F5D90320BCE06A
:10144C000010024000004242007000405F4A136AE4
:10145C0043F001031362E36833B3FFF7E3F9064685
:10146C005A4B1B6A13F0020F2FD1FFF7DBF9801BCD
:10147C0041F288339842F3D903209EE0052B09D022
:10148C00524B1A6A22F001021A621A6A22F0040202
:10149C001A62E0E74D4B1A6A42F004021A621A6AA9
:1014AC0042F001021A62D6E7FFF7BCF90646474B39
:1014BC001B6A13F0020F08D0FFF7B4F9801B41F23E
:1014CC0088339842F3D9032077E0E5B9E369002B20
:1014DC0072D03E4A526802F00C02082A56D0022BF7
:1014EC0017D03B4B00221A66FFF79CF90446374B8A
:1014FC001B6813F0007F47D0FFF794F9001B0228FC
:10150C00F5D9032059E0314AD36923F08053D361D4
:10151C00DCE72F4B00221A66FFF784F905462B4BAC
:10152C001B6813F0007F06D0FFF77CF9401B0228E4
:10153C00F5D9032041E0236AB3F5803F1AD0234943
:10154C004B6823F47413226A606A024313434B60A2
:10155C001F4B01221A66FFF765F904461B4B1B68EB
:10156C0013F0007F0ED1FFF75DF9001B0228F5D9AF
:10157C00032022E0154A536823F40033A1680B437F
:10158C005360DCE7002018E0002016E0012B16D099
:10159C000E4B5B6803F48031226A914211D103F443
:1015AC007013626A93420ED1002006E0012070474E
:1015BC00012002E0012000E0002002B070BD0120FB
:1015CC00FBE70120F9E70120F7E700BF001002401C
:1015DC00000042420F4B5B6803F00C02082A01D05A
:1015EC000D487047C3F383420C49885C13F4803F69
:1015FC000BD0084B5B68C3F34043094AD35C064AE3
:10160C0002FB00F0B0FBF3F07047064B03FB00F05D
:10161C00704700BF0010024000127A000822000838
:10162C001822000800093D00002800F0A08070B5C9
:10163C000D460446524B1B6803F007038B420BD23A
:10164C004F4A136823F007030B431360136803F02E
:10165C0007038B4240F08D80236813F0020F17D0E4
:10166C0013F0040F04D0474A536843F4E06353600B
:10167C00236813F0080F04D0424A536843F46053B4
:10168C005360404A536823F0F003A1680B43536046
:10169C00236813F0010F31D06368012B20D0022B8B
:1016AC0025D0384A126812F0020F64D035494A68C6
:1016BC0022F0030213434B60FFF7B4F80646314B9C
:1016CC005B6803F00C036268B3EB820F16D0FFF774
:1016DC00A9F8801B41F288339842F0D9032045E0E9
:1016EC00284A126812F4003FE0D101203EE0254A5E
:1016FC00126812F0007FD9D1012037E0204B1B6813
:10170C0003F00703AB420AD91D4A136823F0070301
:10171C002B431360136803F00703AB422DD12368EE
:10172C0013F0040F06D0174A536823F4E063E16802
:10173C000B435360236813F0080F07D0114A53680A
:10174C0023F46053216943EAC1035360FFF742FF5E
:10175C000C4B5B68C3F303130B4AD35CD8400B4BA5
:10176C0018600B4B1868FFF719F8002070BD0120AA
:10177C0070470120FAE70120F8E70120F6E700BFE7
:10178C000020024000100240F0210008040000205C
:10179C000C000020014B1868704700BF04000020AB
:1017AC0008B5FFF7F7FF044B5B68C3F30223034A4A
:1017BC00D35CD84008BD00BF0010024000220008D6
:1017CC0070B50D4E0D4D761BB61006D0002455F895
:1017DC00043B01349847A642F9D1094E094D00F05B
:1017EC00D5F8761BB61006D0002455F8043B01340E
:1017FC009847A642F9D170BD20220008202200088B
:10180C002822000820220008830730B548D0541E37
:10181C00002A3FD00346CAB201E0013C3AD303F898
:10182C00012B9D07F9D1032C2DD9CDB245EA052505
:10183C000F2C45EA054536D9A4F1100222F00F0C05
:10184C0003F1200EE6444FEA121C03F1100242E9A8
:10185C00045542E9025510327245F8D10CF10102DF
:10186C0014F00C0F03EB021204F00F0C13D0ACF1BC
:10187C00040323F003030433134442F8045B934240
:10188C00FBD10CF003042CB1CAB21C4403F8012B9D
:10189C009C42FBD130BD64461346002CF4D1F9E7D1
:1018AC0003461446BFE71A46A446E0E7024B13B1C1
:1018BC00024800F005B8704700000000D918000875
:1018CC00002301461A46184600F01AB838B5084BE2
:1018DC00084D5B1B9C1007D0043B1D44013C55F884
:1018EC0004399847002CF9D1BDE8384000F054B8C1
:1018FC002C22000828220008704700BF704700BF48
:10190C002DE9F047DFF87CA00646DAF8000098468F
:10191C000F469146FFF7F0FF1B4B1B68D3F848416D
:10192C0024B365681F2D26DC5EB96B1C0235DAF812
:10193C000000636044F82570FFF7E0FF0020BDE86D
:10194C00F087012304EB8501C1F88890D4F8882135
:10195C00AB401A43022EC4F88821C1F80881E4D1A7
:10196C00D4F88C211343C4F88C31DEE703F5A6744C
:10197C00C3F84841D5E7DAF80000FFF7BFFF4FF096
:10198C00FF30DCE7380400201C220008F8B500BF4B
:10199C00F8BC08BC9E467047F8B500BFF8BC08BC44
:0419AC009E4670479C
:1019B0000000000000000000002F000000000700F1
:1019C000070000147F147F1400242A7F2A120023AA
:1019D00013086462003649552250000000070000D9
:1019E00000001C224100000041221C000014083E9F
:1019F00008140008083E0808000000A06000000865
:101A000008080808000060600000002010080402B8
:101A1000003E5149453E0000427F40000042615176
:101A20004946002141454B31001814127F10002710
:101A300045454539003C4A494930000171090503D3
:101A400000364949493600064949291E0000363604
:101A50000000000056360000000814224100001467
:101A60001414141400004122140800020151090644
:101A7000003E4955592E007C1211127C007F4949C5
:101A80004936003E41414122007F4141221C007FF6
:101A900049494941007F09090901003E4149497A04
:101AA000007F0808087F0000417F4100002040417E
:101AB0003F01007F08142241007F40404040007FEA
:101AC000020C027F007F0408107F003E4141413E2E
:101AD000007F09090906003E4151215E007F091976
:101AE00029460046494949310001017F0101003F73
:101AF0004040403F001F2040201F003F4038403FF3
:101B00000063140814630007087008070061514956
:101B1000454300007F4141000002040810200000FE
:101B200041417F0000040201020400404040404067
:101B3000000001020400002054545478007F4844FF
:101B4000443800384444442000384444487F003836
:101B50005454541800087E0901020018A4A4A47C5F
:101B6000007F080404780000447D40000040808429
:101B70007D00007F102844000000417F4000007C71
:101B800004180478007C080404780038444444387D
:101B900000FC242424180018242418FC007C0804C9
:101BA000040800485454542000043F444020003CA2
:101BB0004040207C001C2040201C003C4030403C29
:101BC000004428102844001CA0A0A07C00446454B9
:101BD0004C440000087F41000000007F000000002E
:101BE000417F080000080408100800000000000001
:101BF000000000000000000000000000000000F8ED
:101C000000000000000000333000000000160E004D
:101C1000160E0000000000000000000040C07840E8
:101C2000C0784000043F04043F040400007088FCB6
:101C300008300000001820FF211E0000F008F0000E
:101C4000E018000000211C031E211E0000F008887F
:101C5000700000001E212324192721100000001607
:101C60000E0000000000000000000000000000E086
:101C700018040200000000071820400000020418A9
:101C8000E00000000040201807000000404080F005
:101C9000804040000202010F01020200000000F03B
:101CA000000000000101011F01010100000000000F
:101CB0000000000000B07000000000000000000004
:101CC000000000000001010101010101000000000D
:101CD00000000000003030000000000000000000A4
:101CE00080601804006018060100000000E0100881
:101CF0000810E000000F102020100F00001010F856
:101D0000000000000020203F202000000070080894
:101D10000888700000302824222130000030088814
:101D2000884830000018202020110E000000C0203C
:101D300010F8000000070424243F240000F808885D
:101D4000880808000019212020110E0000E01088EA
:101D500088180000000F112020110E00003808081C
:101D6000C83808000000003F00000000007088082C
:101D700008887000001C222121221C0000E01008AD
:101D80000810E0000000312222110F00000000C006
:101D9000C00000000000003030000000000000C063
:101DA000C0000000000080B0700000000000804013
:101DB00020100800000102040810200040404040AC
:101DC00040404000040404040404040000081020FF
:101DD0004080000000201008040201000070480844
:101DE0000808F0000000003036010000C030C828AC
:101DF000E810E0000718272423140B000000C03867
:101E0000E0000000203C23020227382008F88888E0
:101E100088700000203F202020110E00C0300808EC
:101E200008083800071820202010080008F80808C3
:101E30000810E000203F202020100F0008F88888BC
:101E4000E8081000203F20202320180008F8888888
:101E5000E8081000203F200003000000C030080800
:101E60000838000007182020221E020008F8080089
:101E70000008F808203F210101213F20000808F850
:101E8000080800000020203F202000000000080873
:101E9000F8080800C08080807F00000008F888C033
:101EA00028180800203F20012638200008F80800E4
:101EB00000000000203F20202020300008F8F8001B
:101EC000F8F80800203F003F003F200008F830C02D
:101ED0000008F808203F200007183F00E01008081D
:101EE0000810E0000F10202020100F0008F808084C
:101EF0000808F000203F210101010000E01008085F
:101F00000810E0000F18242438504F0008F8888883
:101F100088887000203F2000030C30200070880863
:101F2000080838000038202121221C00180808F871
:101F3000080818000000203F2000000008F80800F2
:101F40000008F808001F202020201F0008788800C3
:101F500000C83808000007380E010000F80800F833
:101F60000008F800033C0700073C030008186880DD
:101F70008068180820302C03032C30200838C80053
:101F8000C83808000000203F2000000010080808A2
:101F9000C83808002038262120201800000000FE44
:101FA000020202000000007F40404000000C30C0F0
:101FB00000000000000000010638C000000202021C
:101FC000FE000000004040407F000000002010089C
:101FD00004081020000000000000000000000000C5
:101FE00000000000808080808080808000020408E3
:101FF00000000000000000000000000000008080E1
:10200000808000000019242222223F2008F800804E
:1020100080000000003F112020110E000000008011
:1020200080800000000E11202020110000000080A0
:102030008088F800000E112020103F2000008080D2
:1020400080800000001F222222221300008080F0E6
:10205000888888180020203F202000000000808011
:1020600080808000006B94949493600008F8008056
:1020700080800000203F210000203F2000809898B1
:10208000000000000020203F202000000000008011
:102090009898000000C08080807F000008F8000051
:1020A00080808000203F24022D302000000808F8A6
:1020B000000000000020203F202000008080808061
:1020C00080808000203F20003F20003F0080800073
:1020D0008080000000203F2100203F200000808001
:1020E00080800000001F202020201F0080800080B2
:1020F0008000000080FFA12020110E000000008061
:1021000080808000000E112020A0FF808080800051
:102110008080800020203F2120000100000080807E
:10212000808080000033242424241900008080E073
:10213000808000000000001F202000008080000040
:1021400000808000001F202020103F208080800021
:102150000080808000010E30080601008080008031
:10216000008080800F300C030C300F000080800056
:10217000808080000020312E0E3120008080800081
:102180000080808080818E70180601000080808031
:10219000808080000021302C2221300000000000CF
:1021A000807C020200000000003F40400000000070
:1021B000FF00000000000000FF0000000002027CA1
:1021C000800000000040403F0000000000804040D0
:1021D000800000800000000000010100626C6F6759
:1021E0002E7A6572756E732E746563680000000048
:1021F00000000000000000000102030406070809B7
:102200000000000001020304020304050607080998
:102210000A0B0C0D0E0F1010010200001000002020
:08222000B918000831010008A3
:042228000D0100089C
:10222C00F40100000024F400010000001000000084
:10223C0000000000FC02002064030020CC030020FE
:10224C000000000000000000000000000000000082
:10225C000000000000000000000000000000000072
:10226C000000000000000000000000000000000062
:10227C000000000000000000000000000000000052
:10228C000000000000000000000000000000000042
:10229C000000000000000000000000000000000032
:1022AC000000000000000000000000000000000022
:1022BC000000000000000000000000000000000012
:1022CC000000000000000000000000000000000002
:1022DC0000000000000000000100000000000000F1
:1022EC000E33CDAB34126DE6ECDE05000B000000B6
:1022FC0000000000000000000000000000000000D2
:10230C0000000000000000000000000000000000C1
:10231C0000000000000000000000000000000000B1
:10232C0000000000000000000000000000000000A1
:0C265C000000000000000000B00800209A
:040000050800075D8B
:00000001FF
