:020000040800F2
:1000000000280020510600083506000837060008C1
:10001000390600083B0600083D0600080000000005
:100020000000000000000000000000003F06000883
:1000300041060008000000004306000845060008CD
:100040009906000899060008990600089906000814
:100050009906000899060008990600089906000804
:1000600099060008990600089906000899060008F4
:1000700099060008990600089906000899060008E4
:1000800099060008990600089906000899060008D4
:1000900099060008990600089906000899060008C4
:1000A00099060008990600089906000899060008B4
:1000B000990600089906000800000000990600084B
:1000C00099060008000000000000000099060008E2
:1000D00000000000990600089906000800000000D2
:1000E000990600089906000899060008000000001B
:1000F0000000000000000000000000000000000000
:0C01000000000000000000005FF808F1A3
:10010C0010B5054C237833B9044B13B10448AFF345
:10011C0000800123237010BD540400200000000057
:10012C00B018000808B5034B1BB103490348AFF3E3
:10013C00008008BD0000000058040020B018000822
:10014C0030B589B000240494059406940794174B99
:10015C009A6942F020029A619A6902F02002019297
:10016C00019A9A6942F004029A619A6902F00402B7
:10017C000292029A9A6942F008029A619B6903F012
:10018C0008030393039B0A4D22460221284600F0E4
:10019C004BFC02230493012205920694079304A9B5
:1001AC00284600F031FB09B030BD00BF0010024002
:1001BC000008014072B6FEE708B50A480A4B036016
:1001CC000A4B436000238360C3604FF4804202619A
:1001DC0043618361C361036200F0DAFD00B908BDBD
:1001EC00FFF7E8FF7004002000540040A0860100D7
:1001FC0000B591B02822002106A801F091FA002345
:10020C0001930293039304930593012206924FF4F6
:10021C00803307930A9202220D920E934FF4E0134F
:10022C000F9306A800F05AFF80B90F230193022107
:10023C000291002303934FF480620492059301A86A
:10024C0001F07EF920B911B05DF804FBFFF7B2FFA5
:10025C00FFF7B0FF00B583B000F040FAFFF7C8FF1E
:10026C00FFF76EFFFFF7A8FF02210E4800F0E2FB3C
:10027C00642000F057FA00F02FF800F055F8012434
:10028C00019410250095234603222146002000F0FE
:10029C0029F900942B46044A0521002000F0EEF8C1
:1002AC00EDE700BF00080140C818000800B587B092
:1002BC008DF817004FF480730293012301930DF115
:1002CC001702009200227821024800F03FFE07B08E
:1002DC005DF804FB7004002010B5C82000F022FA71
:1002EC00002405E0044B185DFFF7E0FF0134E4B295
:1002FC00162CF7D910BD00BF0000002000B587B048
:10030C008DF817004FF480730293012301930DF1C4
:10031C001702009240227821024800F017FE07B025
:10032C005DF804FB7004002038B5002509E00020BE
:10033C00FFF7E4FF0134E4B214F0800FF7D001357D
:10034C00EDB2072D0CD8A5F15000C0B2FFF7AEFFEF
:10035C000020FFF7ABFF1020FFF7A8FF0024EBE70E
:10036C0038BD10B50446A1F15000C0B2FFF79EFF96
:10037C00200940F01000FFF799FF04F00F00FFF781
:10038C0095FF10BD0246012002E002FB00F0194669
:10039C004B1EDBB20029F8D1704700002DE9F0416B
:1003AC0080460F469DF81860203AD5B210F0800FA9
:1003BC0007D1102B0AD039464046FFF7D2FF002454
:1003CC0047E00237FFB24FF00008F2E739464046EB
:1003DC00FFF7C7FF002407E004EB0513254AD05CA8
:1003EC00FFF78CFF0134E4B2072C0AD8002EF3D0AF
:1003FC0004EB05131F4AD05CC043C0B2FFF77EFF6D
:10040C00F0E7791CC9B24046FFF7ABFF002408E0C7
:10041C0004EB05130833174AD05CFFF76FFF013468
:10042C00E4B2072C24D8002EF2D004EB05130833C9
:10043C00104AD05CC043C0B2FFF760FFEFE705EB9A
:10044C0045030D4A02EB4303185DFFF757FF0134D8
:10045C00E4B2052C0CD8002EF1D005EB4503064A6E
:10046C0002EB4303185DC043C0B2FFF747FFEEE752
:10047C00BDE8F081001B0008D81800082DE9F043F6
:10048C0083B004460E4617461D469DF828804FF053
:10049C00000909E00634E4B214E00136F6B2002497
:1004AC0009F101005FFA80F917F80920B2B1CDF813
:1004BC0000802B4631462046FFF770FF0C2DE9D00B
:1004CC000834E4B27A2C01D90C2DE6D0782CE7D97B
:1004DC00102DE5D10136F6B20024E1E703B0BDE8FA
:1004EC00F08300002DE9F04F83B082468946904698
:1004FC001D469DF830609DF834B000273C461DE049
:10050C00700804FB00F0C0B25044CDF800B0334684
:10051C0020224946C0B2FFF741FF0DE0700804FBF2
:10052C0000F0C0B230325044CDF800B03346D2B2F5
:10053C004946C0B2FFF732FF0134E4B2AC421AD2E2
:10054C00291BC9B20139C9B20A20FFF71BFFB8FB3E
:10055C00F0F00A4AA2FB0032D20802EB8202A0EBB6
:10056C004202D2B2002FD9D16B1E9C42D6DA002A9D
:10057C00C6D00127D2E703B0BDE8F08FCDCCCCCCF0
:10058C0082B00E4B9A6942F001029A619A6902F0AC
:10059C0001020092009ADA6942F08052DA61DB695A
:1005AC0003F080530193019B054A536823F0E063E9
:1005BC0043F08063536002B0704700BF00100240EC
:1005CC000000014010B586B00023029303930493FE
:1005DC0005930268114B9A4201D006B010BD104C25
:1005EC00A36943F00803A361A36903F00803009314
:1005FC00009BC0230293122303930323059302A9A8
:10060C00084800F001F9E36943F40013E361E3697E
:10061C0003F400130193019BDFE700BF005400407B
:10062C0000100240000C0140FEE7FEE7FEE7FEE78B
:10063C00FEE770477047704708B500F061F808BDD9
:10064C0070470000FFF7FCFF0B480C490C4A0023D5
:10065C0002E0D458C4500433C4188C42F9D3094A6C
:10066C00094C002301E013600432A242FBD301F0D9
:10067C0033F8FFF7EFFD7047000000205404002012
:10068C001C21000854040020CC040020FEE70000CC
:10069C0010B504460E4B18784FF47A73B3FBF0F395
:1006AC000C4A1068B0FBF3F000F09AF868B90F2C04
:1006BC0001D901200AE0002221464FF0FF3000F062
:1006CC0057F8054B1C60002000E0012010BD00BF56
:1006DC001C000020180000202000002008B5074A4C
:1006EC00136843F010031360032000F02FF80F2061
:1006FC00FFF7CEFFFFF744FF002008BD00200240AB
:10070C00034A1168034B1B780B441360704700BFFE
:10071C00C40400201C000020014B1868704700BF67
:10072C00C404002038B50446FFF7F6FF0546B4F1C3
:10073C00FF3F02D0044B1B781C44FFF7EDFF401B1E
:10074C00A042FAD338BD00BF1C000020074AD36872
:10075C0023F4E0631B041B0C000200F4E060034371
:10076C0043F0BF6343F40033D360704700ED00E007
:10077C0000B5194BDB68C3F30223C3F1070CBCF1C2
:10078C00040F28BF4FF0040C03F1040EBEF1060F4A
:10079C0018D9033B4FF0FF3E0EFA0CFC21EA0C017A
:1007AC0099400EFA03F322EA0303194300280BDBEA
:1007BC000901C9B200F1604000F5614080F80013F6
:1007CC005DF804FB0023E5E700F00F000901C9B256
:1007DC00024B1954F4E700BF00ED00E014ED00E00B
:1007EC000138B0F1807F0BD24FF0E0235861054AFD
:1007FC00F02182F823100020986107221A617047BB
:10080C000120704700ED00E070B582B00024A446D2
:10081C008BE07F4DAA4210D007D97E4DAA420CD056
:10082C0005F58035AA4208D015E0A5F58015AA4239
:10083C0003D005F57025AA4209D18A68002A00F078
:10084C00BF80012A00F0B7804361082403E0A5F5BE
:10085C008015AA42F1D0BEF1FF0F00F2B38006461C
:10086C00BEF1FF0F00F2B0804FEA8C0233680F2507
:10087C00954023EA050304FA02F2134333604B68F4
:10088C0013F0805F4FD0644B9A6942F001029A6179
:10089C009B6903F001030193019B4FEA9C02951C99
:1008AC005E4B53F825600CF003039D000F23AB4007
:1008BC0026EA03065A4B984200F08C8003F58063BD
:1008CC00984200F0898003F58063984200F08080A4
:1008DC000323AB4033430232504D45F822304B6872
:1008EC0013F4801F7AD04F4A936843EA0E03936047
:1008FC004B6813F4001F77D04A4AD36843EA0E03BF
:10090C00D3604B6813F4003F74D0464A536843EAF3
:10091C000E0353604B6813F4803F71D0414A136847
:10092C0043EA0E0313600CF1010C0A6832FA0CF363
:10093C006CD0012303FA0CF302EA030E33EA020231
:10094C00F1D14A68122A3FF664AF122A83D801A566
:10095C0055F822F047080008AD090008B70900084F
:10096C00C909000863080008630800086308000848
:10097C00630800086308000863080008630800089F
:10098C00630800086308000863080008630800088F
:10099C006308000863080008B1090008BD090008D5
:1009AC00CC6858E7CC68043455E7CC68083452E777
:1009BC00CC680C344FE7036108244CE700244AE769
:1009CC00042448E7061D4BE7ACF1080292004DE702
:1009DC0002237EE700237CE701237AE7114A936820
:1009EC0023EA0E03936083E70E4AD36823EA0E03CF
:1009FC00D36086E70B4A536823EA0E03536089E7FA
:100A0C00084A136823EA0E0313608CE702B070BD2A
:100A1C0000002210000031100010024000000140C4
:100A2C0000080140000401400AB10161704709044B
:100A3C0001617047C36801EA030221EA030141EA3C
:100A4C0002410161704703685A6912F4806F01D149
:100A5C00002070476FF480625A61002303632022E8
:100A6C0080F83D2080F83E30026C42F004020264B3
:100A7C0080F83C30012070472DE9F04106460C46C9
:100A8C00174698463BE0FFF747FE069BC01A4045C9
:100A9C0002D8B8F1000F32D1012D18D033689B6900
:100AAC0024EA03039BB2B3FA83F35B099F4226D17A
:100ABC0000233363202286F83D2086F83E30326CCA
:100ACC0042F02002326486F83C30012027E0336883
:100ADC005B6924EA03039BB2B3FA83F35B09E5E792
:100AEC0033685B6924EA030C1FFA8CFCBCFA8CFC9F
:100AFC004FEA5C1C674511D1B8F1FF3FC3D1C4F379
:100B0C000745012DECD033689B6924EA030C1FFACE
:100B1C008CFCBCFA8CFC4FEA5C1CEBE70020BDE8BB
:100B2C00F0812DE9F84305460E469046994653E070
:100B3C001A6842F400721A602B686FF480625A6172
:100B4C0000232B63202285F83D2085F83E302A6C4B
:100B5C0042F004022A6485F83C3001204AE0FFF799
:100B6C00DBFDA0EB0900404502D8B8F1000F33D1F2
:100B7C00012F17D02B689B6926EA03039BB2003B1D
:100B8C0018BF012343B300232B63202285F83D209B
:100B9C0085F83E302A6C42F020022A6485F83C30FD
:100BAC00012027E02B685B6926EA03039BB2003B1C
:100BBC0018BF0123E6E72B689C6926EA0404A4B25B
:100BCC00003C18BF0124A4B12B685A6912F4806F41
:100BDC00AED1B8F1FF3FC2D1C6F30747012FEAD11E
:100BEC002B685C6926EA0404A4B2003C18BF0124FB
:100BFC00E9E70020BDE8F88370B504460D461646BB
:100C0C0023685B6913F0800F21D12046FFF71BFF8F
:100C1C00F8B9B5F1FF3FF3D0FFF77EFD801BA8427A
:100C2C0001D8002DECD123685B6913F0800FE7D15C
:100C3C0000232363202284F83D2084F83E30226C6C
:100C4C0042F02002226484F83C30012000E00020B5
:100C5C0070BD0120FCE700002DE9F04385B004468F
:100C6C000D4691461F46DDF830800D9E03681968CD
:100C7C0041F4807119600096434600224FF0011137
:100C8C00FFF7FAFE60B9236805F0FE051D613346D7
:100C9C00424626492046FFF744FF68B1012008E090
:100CAC0023681B6813F4807F02D04FF40073236415
:100CBC00032005B0BDE8F0830023039323685A6931
:100CCC0003929B690393039B324641462046FFF7F0
:100CDC0093FF30B9012F0FD123685FFA89F61E619B
:100CEC00E7E7236C042B01D00120E2E722681368AC
:100CFC0043F400731360F7E723684FEA19221A6173
:100D0C00324641462046FFF777FF20B923685FFA49
:100D1C0089F61E61CDE7236C042B01D00120C8E7B6
:100D2C002268136843F400731360F7E702000100B4
:100D3C0070B504460D46164623685B6913F0040F24
:100D4C0021D12046FFF77FFEF8B9B5F1FF3FF3D074
:100D5C00FFF7E2FC801BA84201D8002DECD12368E0
:100D6C005B6913F0040FE7D100232363202284F87E
:100D7C003D2084F83E30226C42F02002226484F83C
:100D8C003C30012000E0002070BD0120FCE7000099
:100D9C00002800F0CC8070B5044690F83D30002B54
:100DAC0077D0242384F83D302268136823F00103A4
:100DBC0013602268136843F40043136022681368BD
:100DCC0023F40043136000F077FC62685A4B9A429C
:100DDC0064D85A4B98428CBF00230123002B40F05F
:100DEC00A8805749A1FB00318B0C25686A6822F05A
:100DFC003F0242EA91426A6021680A6A22F03F028D
:100E0C0066684D4DAE424FD8013313430B622168D7
:100E1C00CA6922F44F4222F0FF026668464B9E429A
:100E2C004CD8431E7600B3FBF6F3013340F6FC704E
:100E3C00034278D0C3F30B031343CB6121680B68D7
:100E4C0023F0C003E269206A024313430B6021685C
:100E5C008B6823F4034323F0FF032269E068024309
:100E6C0013438B602168CB6823F0FF036269A06990
:100E7C0002431343CB602268136843F001031360F1
:100E8C0000202064202384F83D30206384F83E0049
:100E9C0070BD80F83C30FFF795FB82E7294B9842F8
:100EAC008CBF0023012399E74FF4967505FB03F3E0
:100EBC00254DA5FB03539B090133A6E7A368BBB9DA
:100ECC00451E06EB460CB5FBFCF50135C5F30B05D1
:100EDC00B5FA85F56D0945BBC3B9013806EB460378
:100EEC00B0FBF3F30133C3F30B0343F40043A3E769
:100EFC00451E06EB860C0CEB8C0CB5FBFCF501359A
:100F0C00C5F30B05B5FA85F56D09E4E7013806EB79
:100F1C00860303EB8303B0FBF3F30133C3F30B033F
:100F2C0043F4404388E7042386E7012384E7012048
:100F3C0070470120ACE700BFA08601007F841E0033
:100F4C0083DE1B43FF083D00D34D62102DE9F043B7
:100F5C0083B004460F46904699460C9EFFF7DCFB87
:100F6C00054694F83D00C0B2202803D0022003B0FF
:100F7C00BDE8F0830095192301224B492046FFF769
:100F8C007BFD002840F0898094F83C30012B00F068
:100F9C008680012384F83C3023681A6812F0010F14
:100FAC0003D11A6842F001021A602268136823F414
:100FBC0000631360212384F83D30402384F83E30D5
:100FCC00002323640A9B6362BDF82C306385638D18
:100FDC002385364BE362019500964B4642463946D3
:100FEC002046FFF739FE00285BD1238D002B35D02E
:100FFC002A4631462046FFF7FFFD20BB626A236874
:10100C0012781A61626A531C6362218D013989B2AC
:10101C002185638D9BB2013B9BB263852368586924
:10102C0010F0040FE1D00029DFD052781A61636A06
:10103C0001336362238D013B2385638D9BB2013B9E
:10104C009BB26385D1E7236C042B01D001208EE782
:10105C002268136843F400731360F7E72A4631469D
:10106C002046FFF765FE50B1236C042B01D0012004
:10107C007DE72268136843F400731360F7E7226876
:10108C00136843F400731360202384F83D3000236D
:10109C0084F83E3084F83C3069E7022067E7022090
:1010AC0065E7012063E700BF020010000000FFFFAE
:1010BC0082B0084B1B68084AA2FB03235B0A00FBA7
:1010CC0003F3019300BF019B5A1E0192002BF9D12F
:1010DC0002B0704718000020D34D6210002800F0B9
:1010EC00F18170B582B00446036813F0010F2CD067
:1010FC00994B5B6803F00C03042B1DD0964B5B687B
:10110C0003F00C03082B12D06368B3F5803F41D079
:10111C00002B55D103F1804303F504331A6822F4F4
:10112C0080321A601A6822F480221A6037E08A4BE7
:10113C005B6813F4803FE7D0874B1B6813F4003FC8
:10114C0003D06368002B00F0BF81236813F0020FFB
:10115C0075D0814B5B6813F00C0F5FD07E4B5B68D6
:10116C0003F00C03082B54D02369002B00F08A8069
:10117C007A4B01221A60FFF7CFFA0546764B1B68B3
:10118C0013F0020F75D1FFF7C7FA401B0228F5D9EF
:10119C0003209EE1704A136843F480331360636844
:1011AC0043B3FFF7B9FA05466B4B1B6813F4003FCA
:1011BC00CBD1FFF7B1FA401B6428F5D9032088E1A5
:1011CC00B3F5A02F09D0644B1A6822F480321A6050
:1011DC001A6822F480221A60E1E703F18043A3F538
:1011EC003C331A6842F480221A601A6842F4803246
:1011FC001A60D4E7FFF790FA0546574B1B6813F4B7
:10120C00003FA2D0FFF788FA401B6428F5D90320D1
:10121C005FE1514B5B6813F4803FA5D14E4B1B68CB
:10122C0013F0020F03D02369012B40F04F814A4A7F
:10123C00136823F0F803616943EAC1031360236860
:10124C0013F0080F33D0A369002B5CD0434B012261
:10125C00C3F88024FFF760FA05463F4B5B6A13F036
:10126C00020F21D1FFF758FA401B0228F5D90320B1
:10127C002FE1394A136823F0F803616943EAC1038B
:10128C001360DCE7354B00221A60FFF745FA054680
:10129C00314B1B6813F0020FD1D0FFF73DFA401B06
:1012AC000228F5D9032014E10120FFF701FF236880
:1012BC0013F0040F00F09680274BDB6913F0805F6E
:1012CC0034D1254BDA6942F08052DA61DB6903F0E4
:1012DC0080530193019B0125214B1B6813F4807FE4
:1012EC0026D0E368012B3DD0002B53D103F1804372
:1012FC0003F504331A6A22F001021A621A6A22F008
:10130C0004021A6233E0154B0022C3F88024FFF765
:10131C0003FA0546104B5B6A13F0020FC7D0FFF7B8
:10132C00FBF9401B0228F5D90320D2E00025D3E7B6
:10133C000B4A136843F480731360FFF7EDF906460C
:10134C00074B1B6813F4807FCBD1FFF7E5F9801BAB
:10135C006428F5D90320BCE0001002400000424292
:10136C00007000405F4A136A43F001031362E368A4
:10137C0033B3FFF7D1F906465A4B1B6A13F0020F31
:10138C002FD1FFF7C9F9801B41F288339842F3D96A
:10139C0003209EE0052B09D0524B1A6A22F0010261
:1013AC001A621A6A22F004021A62E0E74D4B1A6ABA
:1013BC0042F004021A621A6A42F001021A62D6E77B
:1013CC00FFF7AAF90646474B1B6A13F0020F08D029
:1013DC00FFF7A2F9801B41F288339842F3D903201E
:1013EC0077E0E5B9E369002B72D03E4A526802F00F
:1013FC000C02082A56D0022B17D03B4B00221A663F
:10140C00FFF78AF90446374B1B6813F0007F47D06F
:10141C00FFF782F9001B0228F5D9032059E0314A65
:10142C00D36923F08053D361DCE72F4B00221A667B
:10143C00FFF772F905462B4B1B6813F0007F06D0A3
:10144C00FFF76AF9401B0228F5D9032041E0236A13
:10145C00B3F5803F1AD023494B6823F47413226AE6
:10146C00606A024313434B601F4B01221A66FFF75D
:10147C0053F904461B4B1B6813F0007F0ED1FFF78A
:10148C004BF9001B0228F5D9032022E0154A5368BA
:10149C0023F40033A1680B435360DCE7002018E011
:1014AC00002016E0012B16D00E4B5B6803F4803144
:1014BC00226A914211D103F47013626A93420ED1E5
:1014CC00002006E001207047012002E0012000E02E
:1014DC00002002B070BD0120FBE70120F9E70120DC
:1014EC00F7E700BF00100240000042420F4B5B6860
:1014FC0003F00C02082A01D00D487047C3F3834255
:10150C000C49885C13F4803F0BD0084B5B68C3F329
:10151C004043094AD35C064A02FB00F0B0FBF3F0EF
:10152C007047064B03FB00F0704700BF00100240F1
:10153C0000127A00F82000080821000800093D007C
:10154C00002800F0A08070B50D460446524B1B6875
:10155C0003F007038B420BD24F4A136823F00703A7
:10156C000B431360136803F007038B4240F08D802C
:10157C00236813F0020F17D013F0040F04D0474A5E
:10158C00536843F4E0635360236813F0080F04D0EE
:10159C00424A536843F460535360404A536823F003
:1015AC00F003A1680B435360236813F0010F31D093
:1015BC006368012B20D0022B25D0384A126812F018
:1015CC00020F64D035494A6822F0030213434B6082
:1015DC00FFF7A2F80646314B5B6803F00C03626818
:1015EC00B3EB820F16D0FFF797F8801B41F28833CC
:1015FC009842F0D9032045E0284A126812F4003FC3
:10160C00E0D101203EE0254A126812F0007FD9D1CA
:10161C00012037E0204B1B6803F00703AB420AD9CB
:10162C001D4A136823F007032B431360136803F060
:10163C000703AB422DD1236813F0040F06D0174AD1
:10164C00536823F4E063E1680B435360236813F0A1
:10165C00080F07D0114A536823F46053216943EAF9
:10166C00C1035360FFF742FF0C4B5B68C3F30313DA
:10167C000B4AD35CD8400B4B18600B4B1868FFF728
:10168C0007F8002070BD012070470120FAE7012007
:10169C00F8E70120F6E700BF0020024000100240EE
:1016AC00E02000081800002020000020014B1868E2
:1016BC00704700BF1800002008B5FFF7F7FF044B78
:1016CC005B68C3F30223034AD35CD84008BD00BF58
:1016DC0000100240F020000870B50D4E0D4D761B29
:1016EC00B61006D0002455F8043B01349847A642A6
:1016FC00F9D1094E094D00F0D5F8761BB61006D07D
:10170C00002455F8043B01349847A642F9D170BD2A
:10171C0010210008102100081821000810210008D1
:10172C00830730B548D0541E002A3FD00346CAB2B6
:10173C0001E0013C3AD303F8012B9D07F9D1032CAE
:10174C002DD9CDB245EA05250F2C45EA054536D9EC
:10175C00A4F1100222F00F0C03F1200EE6444FEA24
:10176C00121C03F1100242E9045542E902551032F1
:10177C007245F8D10CF1010214F00C0F03EB0212BC
:10178C0004F00F0C13D0ACF1040323F00303043367
:10179C00134442F8045B9342FBD10CF003042CB1CC
:1017AC00CAB21C4403F8012B9C42FBD130BD6446E9
:1017BC001346002CF4D1F9E703461446BFE71A464A
:1017CC00A446E0E7024B13B1024800F005B870479D
:1017DC0000000000F1170008002301461A461846C5
:1017EC0000F01AB838B5084B084D5B1B9C1007D09D
:1017FC00043B1D44013C55F804399847002CF9D1A1
:10180C00BDE8384000F054B81C210008182100082D
:10181C00704700BF704700BF2DE9F047DFF87CA090
:10182C000646DAF8000098460F469146FFF7F0FF9F
:10183C001B4B1B68D3F8484124B365681F2D26DC6D
:10184C005EB96B1C0235DAF80000636044F8257051
:10185C00FFF7E0FF0020BDE8F087012304EB8501D2
:10186C00C1F88890D4F88821AB401A43022EC4F8F2
:10187C008821C1F80881E4D1D4F88C211343C4F831
:10188C008C31DEE703F5A674C3F84841D5E7DAF8E6
:10189C000000FFF7BFFF4FF0FF30DCE750040020E3
:1018AC000C210008F8B500BFF8BC08BC9E46704778
:0C18BC00F8B500BFF8BC08BC9E467047A1
:1018C80068656C6C6F7720776F726C64000000003D
:1018D8000000000000000000002F000000000700CA
:1018E800070000147F147F1400242A7F2A12006244
:1018F80064081323003649552250000005030000F0
:1019080000001C224100000041221C000014083E77
:1019180008140008083E0808000000A0600000083D
:101928000808080800006060000000201008040291
:10193800003E5149453E0000427F4000004261514F
:101948004946002141454B31001814127F100027E9
:1019580045454539003C4A494930000171090503AC
:1019680000364949493600064949291E00003636DD
:101978000000000056360000000814224100001440
:10198800141414140000412214080002015109061D
:1019980000324959513E007C1211127C007F49499E
:1019A8004936003E41414122007F4141221C007FCF
:1019B80049494941007F09090901003E4149497ADD
:1019C800007F0808087F0000417F41000020404157
:1019D8003F01007F08142241007F40404040007FC3
:1019E800020C027F007F0408107F003E4141413E07
:1019F800007F09090906003E4151215E007F09194F
:101A080029460046494949310001017F0101003F4B
:101A18004040403F001F2040201F003F4038403FCB
:101A2800006314081463000708700807006151492F
:101A3800454300007F41410000552A552A550000C2
:101A480041417F0000040201020400404040404040
:101A5800000001020400002054545478007F4844D8
:101A6800443800384444442000384444487F00380F
:101A78005454541800087E0901020018A4A4A47C38
:101A8800007F080404780000447D40000040808402
:101A98007D00007F102844000000417F4000007C4A
:101AA80004180478007C0804047800384444443856
:101AB80000FC242424180018242418FC007C0804A2
:101AC800040800485454542000043F444020003C7B
:101AD8004040207C001C2040201C003C4030403C02
:101AE800004428102844001CA0A0A07C0044645492
:101AF8004C441414141414140000000000000000D6
:101B08000000000000000000000000F800000000D5
:101B1800000000333000000000100C06100C060016
:101B2800000000000000000040C07840C07840007D
:101B3800043F04043F040400007088FC08300000DF
:101B4800001820FF211E0000F008F000E018000037
:101B580000211C031E211E0000F0088870000000F0
:101B68001E2123241927211010160E000000000042
:101B78000000000000000000000000E0180402005F
:101B8800000000071820400000020418E0000000D0
:101B98000040201807000000404080F080404000CE
:101BA8000202010F01020200000000F00000000024
:101BB8000101011F010101000000000000000000F8
:101BC80080B070000000000000000000000000006D
:101BD80000010101010101010000000000000000F6
:101BE8000030300000000000000000008060180491
:101BF800006018060100000000E010080810E0006E
:101C0800000F102020100F00001010F80000000036
:101C18000020203F2020000000700808088870007D
:101C280000302824222130000030088888483000FD
:101C38000018202020110E000000C02010F800001D
:101C480000070424243F240000F8088888080800B6
:101C58000019212020110E0000E0108888180000CB
:101C6800000F112020110E0000380808C83808009D
:101C78000000003F0000000000708808088870001D
:101C8800001C222121221C0000E010080810E0009E
:101C98000000312222110F00000000C0C000000027
:101CA800000000303000000000000080000000004C
:101CB8000000806000000000000080402010080044
:101CC800000102040810200040404040404040000D
:101CD80004040404040404000008102040800000E8
:101CE8000020100804020100007048080808F000ED
:101CF8000000003036010000C030C828E810E000BD
:101D08000718272423140B000000C038E000000047
:101D1800203C23020227382008F8888888700000B1
:101D2800203F202020110E00C03008080808380085
:101D3800071820202010080008F808080810E000FC
:101D4800203F202020100F0008F88888E80810009D
:101D5800203F20202320180008F88888E808100071
:101D6800203F200003000000C030080808380000A9
:101D780007182020221E020008F808000008F808AA
:101D8800203F210101213F20000808F80808000031
:101D98000020203F2020000000000808F808080064
:101DA800C08080807F00000008F888C028180800DC
:101DB800203F20012638200008F808000000000015
:101DC800203F20202020300008F8F800F8F808000C
:101DD800203F003F003F200008F830C00008F80806
:101DE800203F200007183F00E01008080810E00016
:101DF8000F10202020100F0008F808080808F0002D
:101E0800203F210101010000E01008080810E0004F
:101E18000F18242438504F0008F8888888887000E4
:101E2800203F2000030C3020007088080808380084
:101E38000038202121221C00180808F8080818007A
:101E48000000203F2000000008F808000008F808FB
:101E5800001F202020201F000878880000C83808AC
:101E6800000007380E010000F80800F80008F80024
:101E7800033C0700073C03000818688080681808BE
:101E880020302C03032C30200838C800C83808003C
:101E98000000203F2000000010080808C83808008B
:101EA8002038262120201800000000FE020202002F
:101EB8000000007F40404000000C30C000000000DF
:101EC800000000010638C00000020202FE00000007
:101ED800004040407F0000000000040202020400AD
:101EE80000000000000000000000000000000000EA
:101EF80080808080808080800002020400000000D2
:101F080000000000000000000000808080800000C9
:101F18000019242222223F2008F8008080000000B7
:101F2800003F112020110E0000000080808000007A
:101F3800000E112020201100000000808088F80089
:101F4800000E112020103F200000808080800000BB
:101F5800001F222222221300008080F0888888181F
:101F68000020203F2020000000008080808080002A
:101F7800006B94949493600008F8008080800000BF
:101F8800203F210000203F2000809898000000009A
:101F98000020203F202000000000008098980000CA
:101FA80000C08080807F000008F8000080808000EA
:101FB800203F24022D302000000808F8000000000F
:101FC8000020203F202000008080808080808000CA
:101FD800203F20003F20003F80800080808000005C
:101FE800203F210000203F200000808080800000EA
:101FF800001F202020201F0080800080800000001B
:1020080080FFA12020110E00000000808080800049
:10201800000E112020A0FF8080808000808080003A
:1020280020203F2120000100000080808080800067
:102038000033242424241900008080E080800000DC
:102048000000001F20200000808000000080800029
:10205800001F202020103F2080808000008080808A
:1020680000010E300806010080800080008080801A
:102078000F300C030C300F0000808000808080003F
:102088000020312E0E31200080808000008080806A
:1020980080818E701806010000808080808080001A
:1020A8000021302C2221300000000000807C020238
:1020B80000000000003F40400002027C8000000059
:1020C8000040403F0000000000000000FF0000004A
:1020D80000000000FF0000000000000000000000F9
:1020E80001020304060708090000000001020304B6
:1020F80002030405060708090A0B0C0D0E0F101041
:08210800010200002800002084
:08211000D1170008310100089D
:042118000D010008AD
:10211C00AED580A83FD30040A1C8DA1281CFD9F147
:10212C00DB40A4A68D14AF000024F40001000000D5
:10213C00100000000000000000000000140300204C
:10214C007C030020E40300200000000000000000DD
:10215C000000000000000000000000000000000073
:10216C000000000000000000000000000000000063
:10217C000000000000000000000000000000000053
:10218C000000000000000000000000000000000043
:10219C000000000000000000000000000000000033
:1021AC000000000000000000000000000000000023
:1021BC000000000000000000000000000000000013
:1021CC000000000000000000000000000000000003
:1021DC0000000000000000000000000000000000F3
:1021EC0001000000000000000E33CDAB34126DE690
:1021FC00ECDE05000B0000000000000000000000F9
:10220C0000000000000000000000000000000000C2
:10221C0000000000000000000000000000000000B2
:10222C0000000000000000000000000000000000A2
:10223C000000000000000000000000000000000092
:04256C00C80400207F
:040000050800065198
:00000001FF
